:100000000C94E62B0D942E380D9403380D94D837AC
:100010000D94AD370D9482370D9457370D942C37CE
:100020000D9401370C94172C0C94172C0C94172C4E
:100030000C94172C0D94B0380C94172C0C94172C8E
:100040000C94172C0C946B9D0C94172C0C94172C5F
:100050000C94172C0C94172C0C944D9B0D949B3DD9
:100060000C94172C0D94DC340D947C350C94172CC7
:100070000C94172C0C94172C0C94172C0C94172CF4
:100080000C94172C0C94172C0C94172C0C94172CE4
:100090000C94172C0C94172C0C94172C0C94172CD4
:1000A0000C94172C0C94172C0C94172C0C94172CC4
:1000B0000C94172C0C94172C0C94172C0C94172CB4
:1000C0000C94172C0C94172C0C94172C0C94172CA4
:1000D0000C94172C0C94172C0C94172C0C94172C94
:1000E0000C94172C084AD73B3BCE016E84BCBFFD55
:1000F000C12F3D6C74319ABD56833DDA3D00C77FF8
:1001000011BED9E4BB4C3E916BAAAABE0000008090
:100110003F05A84CCDB2D44EB93836A9020C50B91F
:10012000918688083CA6AAAA2ABE000000803F004B
:100130000D94C1390D94F9390D94D8150D94041608
:100140000D94CB390D9458150D94B4150D94B73901
:100150000D94D3390D9455350D94E2150D94E53970
:100160000D94DB390D94FE150D94A0390D9459357D
:100170000D9467350D94FA150D945D350D94C915E0
:100180000D9409350D94F0150D9461350D9482157B
:100190000D94D1150D9408160D94083A0D9451350F
:1001A0000D94DE150D94EF390D94CD150D94B61503
:1001B0000D945C150D94AD390D9434350D941C3AA5
:1001C0000D94303A0D9442350D94263A0D94483DE5
:1001D0000D943A3A0D9403160D94F6150D94E81506
:1001E0000D942F150D94123A0D9459150D94C315B5
:1001F0000D94D5150D944A350D94A8390D94EC1530
:100200004E414E494E495459494E46CDCCCC3D0AFB
:10021000D7233C17B7D13877CC2B329595E6241FDE
:10022000B14F0A000020410000C84200401C462097
:10023000BCBE4CCA1B0E5AAEC59D7454415A2036E2
:1002400020526574726F2072656164792E0050725D
:10025000696E74696E672E2E2E005072696E74205E
:10026000706175736564004D313235004D32340074
:100270005072696E742061626F72746564005072AE
:10028000696E742066726F6D2053440053746F70F2
:10029000207072696E7400526573756D652070729E
:1002A000696E74004E6F2053442063617264005085
:1002B00061757365207072696E740041626F757448
:1002C000205072696E746572004368616E676520C4
:1002D00066696C616D656E74004368616E67652068
:1002E00066696C616D656E74004D36303020423049
:1002F00000436F6E66696775726174696F6E005452
:10030000656D7065726174757265004D6F76656DAF
:10031000656E740054756E6500496E666F20736378
:100320007265656E004D6F76652061786973004473
:10033000697361626C6520737465707065727300B7
:100340004D3834004175746F20686F6D6500473219
:1003500038004D61696E004D3530320A4D35303010
:10036000004C6F61642073657474696E677300522A
:100370006573746F7265206661696C736166650090
:1003800053746F72652073657474696E677300418E
:100390006476616E6365642053657474696E677317
:1003A000004D61696E005072696E746572205374FD
:1003B000617473004669726D77617265205665726B
:1003C00073696F6E004D61696E000A003B20454500
:1003D00050524F4D20496E6465783A200055706444
:1003E0006174696E67207A6F666673657420696EE2
:1003F00020454550524F4D3A20000E000E000E0091
:100400000E000E000E000E000E007FC03F801F0089
:100410000E00040004000E001F003F807FC00E008D
:100420000E000E000E000E000E000E000E0003F86F
:10043000000FFE001E0F0038070038038070038095
:10044000700FE07007C0700380700100700000380A
:1004500000003807001E0F000FFE0003F80000FE2A
:100460000003FF800783C00E01C00E00E01C00E007
:100470007F00E03E00E01C00E00800E00000E0003B
:1004800001C00E01C00F078007FF0001FC00FFFF45
:10049000FF7F80FFC0FFC0FFC07F807F80FFC0FF65
:1004A000C0FFC03F001E000C0050726F6265205AF2
:1004B000204F66667365740050726F6265205A2023
:1004C0004F666673657400466C6F7700466C6F7795
:1004D0000046616E2073706565640046616E20732E
:1004E000706565640042656400426564004E6F7A21
:1004F0007A6C65004E6F7A7A6C650053706565643E
:10050000005370656564004D61696E004D6F7665DE
:100510002058004D6F76652059004D6F7665205A42
:1005200000457874727564657220004D6F766520A1
:10053000302E316D6D004D6F766520316D6D004D43
:100540006F76652031306D6D004D6F766520617876
:10055000697300457874727564657220004D6F761A
:1005600065205A004D6F76652059004D6F766520E5
:100570005800457874727564657220004175746F17
:1005800020686F6D6500473238004D6F7665205AE0
:10059000004D6F76652059004D6F76652058004DEF
:1005A0006F76656D656E7400436F6F6C646F776E08
:1005B0000046616E2073706565640046616E20734D
:1005C000706565640042656400426564004E6F7A40
:1005D0007A6C65004E6F7A7A6C65004D61696E00C9
:1005E0005654726176206D696E00565472617620A1
:1005F0006D696E00566D696E00566D696E00566DC0
:100600006178204500566D6178204500566D61780F
:10061000205A00566D6178205A00566D6178205935
:1006200000566D6178205900566D6178205800564B
:100630006D61782058004D6F74696F6E00416D6177
:1006400078204500416D6178204500416D6178203A
:100650005A00416D6178205A00416D61782059003F
:10066000416D6178205900416D6178205800416DDD
:100670006178205800412D74726176656C00412DBF
:1006800074726176656C00412D7265747261637479
:1006900000412D7265747261637400416363656C1F
:1006A00000416363656C004D6F74696F6E00566541
:1006B0002D6A65726B0056652D6A65726B00567AFD
:1006C0002D6A65726B00567A2D6A65726B005679D9
:1006D0002D6A65726B0056792D6A65726B005678CB
:1006E0002D6A65726B0056782D6A65726B004D6FCE
:1006F00074696F6E004573746570732F6D6D00457E
:1007000073746570732F6D6D005A73746570732FF9
:100710006D6D005A73746570732F6D6D005973742D
:100720006570732F6D6D005973746570732F6D6DE7
:10073000005873746570732F6D6D00587374657015
:10074000732F6D6D004D6F74696F6E004F6666009C
:100750004F6E2000456E6473746F702061626F721B
:10076000740053746570732F6D6D004A65726B0071
:10077000416363656C65726174696F6E0056656C88
:100780006F636974790050726F6265205A204F66FA
:100790006673657400416476616E636564205365B9
:1007A0007474696E67730043616E6E6F7420656E5A
:1007B000746572207375626469723A2000022E2E8D
:1007C000004D61696E00004578747275646564203F
:1007D000746F74616C3A2000256C642E25696D007D
:1007E000004C6F6E67657374206A6F622074696D68
:1007F000653A200000546F74616C207072696E74E9
:100800002074696D653A2000436F6D706C65746586
:10081000643A20005072696E7420436F756E743AAA
:1008200020004D37303220542564004D36303020C2
:10083000423020542564004D373032203B2564007F
:100840004D37303120542564004368616E67652060
:1008500066696C616D656E7400507265686561747F
:1008600020437573746F6D00507265686561742004
:10087000437573746F6D00507265686561742041D3
:100880004253005072656865617420504C41004DC0
:1008900061696E005052494E5420504155534544B1
:1008A00000554E4C4F41442046494C414D454E5415
:1008B000004C4F41442046494C414D454E54005058
:1008C00075726765206D6F726500456E642066699C
:1008D0006C616D656E74206368616E6765000020F1
:1008E000204E6F7A7A6C653A20006368616E6765A6
:1008F000006F66207468652066696C616D656E7452
:10090000005761697420666F72207374617274009D
:1009100020204E6F7A7A6C653A2000200066696C60
:10092000616D656E7420756E6C6F616400576169EE
:100930007420666F720020204E6F7A7A6C653A20C0
:10094000002000506C6561736520776169742E2EFC
:100950002E0048656174696E67206E6F7A7A6C65E7
:100960000020204E6F7A7A6C653A2000200068657E
:100970006174206E6F7A7A6C652E005072657373A5
:1009800020627574746F6E20746F0020204E6F7A31
:100990007A6C653A2000746F20636F6E74696E75AF
:1009A000652E2E2E00616E64207072657373206256
:1009B0007574746F6E00496E736572742066696C2D
:1009C000616D656E740020204E6F7A7A6C653A20F6
:1009D00000200066696C616D656E74206C6F6164E7
:1009E000005761697420666F720020204E6F7A7A1A
:1009F0006C653A2000200066696C616D656E74203C
:100A00007075726765005761697420666F72005077
:100A10006C6561736520776169742E0000436172B3
:100A2000642072656D6F766564004361726420694D
:100A30006E73657274656400000021002400270055
:100A40002A002D00300033000101000004010701DD
:100A50000A01050505050705080808080202020243
:100A60000A0A08080404040401010101010101014A
:100A70000303030303030303040707070C0C0C0C15
:100A80000C0C0C0C020202020606060606060606FE
:100A90000B0B0B0B0B0B0B0B1FFFFFFFFFFFFF6085
:100AA0000000000001FF400000000000FF80000087
:100AB0000000007F83CF00000C303F87FF80000CD8
:100AC000301F867980000C000F8C30C7838C30E794
:100AD0008C30CFC7CC31F38C30DCECEC33B98C30BC
:100AE000D86C6C33198C30D06C0C33198C30D86CBA
:100AF0000C33198C30DC6C0E3B198C30CF7C079F8B
:100B0000198C30C77C038F19400000000000026080
:100B10000000000000061FFFFFFFFFFFF82020502D
:100B20006C616E6E65724275666665724279746557
:100B3000733A20002046726565204D656D6F7279AD
:100B40003A2000436F6D70696C65643A204A616EAB
:100B500020203520323031390A00207C2041757444
:100B6000686F723A2028416C657068204F626A6530
:100B700063747320496E632E2C204C756C7A426F1F
:100B80007420476974205265706F7369746F72794D
:100B9000290A004A616E2020352032303139323244
:100BA0003A35343A323400204C6173742055706405
:100BB000617465643A2000312E312E390A004D618E
:100BC000726C696E0020536F667477617265205293
:100BD000657365740A00205761746368646F6720E9
:100BE00052657365740A002042726F776E206F75CC
:100BF000742052657365740A002045787465726EBE
:100C0000616C2052657365740A00506F7765725588
:100C1000700A0073746172740A006175746F2569DB
:100C20002E67006572726F722077726974696E67E1
:100C300020746F2066696C650A00456E6473746F7A
:100C40007073202563202563202563202563002001
:100C5000503A00205A3A0020593A0020583A00658C
:100C60006E6473746F7073206869743A2000446F07
:100C70006E6520736176696E672066696C652E0A01
:100C8000004D3239004739310A4730205A3135207A
:100C9000463630300A4739300A473020583137302D
:100CA00020593239302046333030300A4D31313717
:100CB000205072696E742061626F727465642E00D8
:100CC0004D3234004D323320257300556E6B6E6FFC
:100CD000776E20636F6D6D616E643A202200486FFD
:100CE00074656E6420746F6F20636F6C640A00001B
:100CF000000A0B02090C0D0E080703040100000096
:100D000000000000000000000000000000000000E3
:100D100000000000000000000000001211100000A0
:100D200000000000000000000000000000000000C3
:100D3000000000000050726F62696E672066616992
:100D40006C65640A0050726F62696E672066616943
:100D50006C656400205A3A200020593A2000426510
:100D60006420583A2000010210202008081020407A
:100D7000102040800201020108040201010204085F
:100D800010204080804020100804020180040201ED
:100D90008040201008040201080402010102040836
:100DA000102040800102040810204080534420633A
:100DB000617264206F6B0A006F70656E526F6F74A2
:100DC000206661696C65640A00766F6C756D652ECE
:100DD000696E6974206661696C65640A0053442019
:100DE000696E6974206661696C0A0057726974697A
:100DF0006E6720746F2066696C653A20006F7065BD
:100E00006E206661696C65642C2046696C653A20C9
:100E1000006F70656E206661696C65642C204669A0
:100E20006C653A200046696C652073656C65637477
:100E300065640A002053697A653A200046696C654A
:100E4000206F70656E65643A20002066696C653AB3
:100E50002000646F696E67006672657368004E6F8C
:100E6000772000454E4420535542524F5554494E29
:100E7000450A002220706F73002220706172656E37
:100E8000743A2200535542524F5554494E4520431F
:100E9000414C4C207461726765743A22004B494C96
:100EA0004C45442E2000747279696E6720746F205F
:100EB00063616C6C207375622D67636F6465206677
:100EC000696C6573207769746820746F6F206D6139
:100ED0006E79206C6576656C732E204D4158206CC0
:100EE0006576656C2069733A004572726F723A00DC
:100EF0006F70656E206661696C65642C2046696C54
:100F0000653A200043616E6E6F74206F70656E20CD
:100F100073756264697220006563686F3A004531D9
:100F200020544845524D414C2052554E415741594D
:100F30000042454420544845524D414C2052554EA4
:100F40004157415900546865726D616C2052756E4D
:100F500061776179001000C90210012C0140012263
:100F60000170011801B0010E01F00104015002FAF4
:100F700000B002F0003003E600D003DC009004D2A1
:100F8000007005C800A006BE000008B400B009AAA1
:100F900000D00BA000600E960060118C000015823E
:100FA0000020197800C01D6E00A0226400B0275AEE
:100FB00000902C500000314600E0343C00103832E4
:100FC00000903A2800603C1E00A03D1400803E0ABC
:100FD00000203F00004534004533004532004531D4
:100FE000004530005A32005932005832005A005938
:100FF00000580025346400253364007A5F70726FF6
:1010000062653A20007A5F6D61783A20007A5F6D00
:10101000696E3A2000795F6D61783A2000785F6DE3
:10102000696E3A20005265706F7274696E67206550
:101030006E6473746F70207374617475730A00004A
:10104000000001000000010000800055555500001F
:1010500000400033333300AAAA2A0049922400003A
:10106000002000C7711C0099991900D1451700553F
:101070005515003BB1130024491200111111000055
:101080000010000F0F0F00E3380E0043790D00CC65
:10109000CC0C00C3300C00E8A20B0064210B00AAAA
:1010A000AA0A00703D0A009DD80900427B090092FF
:1010B000240900DCD30800888808001042080000DA
:1010C000000800F0C107008787070075500700710E
:1010D0001C07003EEB0600A1BC06006990060066F6
:1010E000660600703E06006118060017F4050074DD
:1010F000D105005BB00500B2900500627205005595
:1011000055050078390500B81E0500050505004E97
:10111000EC040087D40400A1BD040090A70400499A
:10112000920400C17D0400EE690400C75604004427
:101130004404005C32040008210400411004000053
:101140000004003FF00300F8E0030026D20300C3D0
:10115000C30300CCB503003AA803000A9B03003880
:101160008E0300C08103009F750300D06903005007
:101170005E03001D53030034480300913D03003318
:1011800033030016290300381F03009715030030AE
:101190000C0300030303000BFA020049F10200BA3A
:1011A000E802005CE002002DD802002DD0020059B8
:1011B000C80200B0C0020031B90200DAB10200AAD0
:1011C000AA0200A0A30200BC9C0200FA9502005CE7
:1011D0008F0200DF88020082820200457C02002725
:1011E00076020027700200436A02007C640200D08D
:1011F0005E02003F590200C853020020746F6F2046
:101200006C6F6E6720657874727573696F6E20708D
:10121000726576656E7465640A0020636F6C642085
:10122000657874727573696F6E2070726576656E1D
:101230007465640A00FFFDFCFAF8F6F4F2F0EEECD7
:10124000EAE9E7E5E3E1E0DEDCDAD9D7D5D4D2D0CC
:10125000CFCDCBCAC8C7C5C3C2C0BFBDBCBAB9B762
:10126000B6B4B3B2B0AFADACAAA9A8A6A5A4A2A1CA
:10127000A09E9D9C9A99989795949392908F8E8D0D
:101280008B8A8988878684838281807F7E7D7B7A32
:10129000797877767574737271706F6E6D6C6B6A36
:1012A000696867666564636261605F5E5D5C5B5A26
:1012B0005958585756555453525150504F4E4D4C03
:1012C0004B4A4A4948474646454443424241403FCB
:1012D0003E3E3D3C3B3B3A39383837363535343382
:1012E00032323130302F2E2E2D2C2B2B2A2929282B
:1012F000272726252524232322212120201F1E1EC7
:101300001D1C1C1B1B1A1919181817161615151455
:10131000131312121111100F0F0E0E0D0D0C0C0BDA
:101320000A0A090908080707060605050404030355
:10133000020201000024F4D43050C38E20C2A24027
:1013400017828B7011127A910D816CD90AA861E114
:1013500008C7586607615143061E4B5D05C145A786
:10136000041A411104093D9803713931034036DBF9
:101370000265339102D4305402802E1D02632CEE9C
:1013800001752AC501B028A001102781018F2564AD
:10139000012B244B01E0223401AC211F018D200DD3
:1013A00001801FFC00841EED00971DDF00B81CD2D9
:1013B00000E61BC600201BBC00641AB200B219A8CC
:1013C000000A19A0006A189900D117910040178BE4
:1013D00000B516840031167E00B31579003A1573F6
:1013E00000C7146F0058146A00EE13660088136378
:1013F0000025135E00C7125B006C125700151254D3
:1014000000C111510070114F0021114B00D610493D
:10141000008D1047004610440002104200C00F40EB
:1014200000800F3E00420F3C00060F3B00CB0E3801
:1014300000930E37005C0E3500270E3400F30D329A
:1014400000C10D3100900D3000600D2E00320D2DC9
:1014500000050D2C00D90C2B00AE0C2900850C29A1
:10146000005C0C2700350C27000E0C2600E80B242E
:1014700000C40B2400A00B23007D0B23005A0B217A
:1014800000390B2100180B2000F80A1F00D90A1E92
:1014900000BB0A1E009D0A1D00800A1D00630A1C75
:1014A00000470A1B002C0A1B00110A1A00F7091A30
:1014B00000DD091900C4091900AB091900920917C8
:1014C000007B091800630917004C0916003609163D
:1014D00000200916000A091500F5081500E0081497
:1014E00000CC081400B8081400A4081400900813D5
:1014F000007D0812006B08130058081200460812FD
:10150000003408110023081100120811000108110D
:1015100000F0071000E0071000D0071000C007100F
:1015200000B0070F00A107100091070E0083070FFE
:101530000074070F0065070E0057070E0049070EDD
:10154000003B070D002E070E0020070D0013070DAE
:101550000006070D00F9060C00ED060D00E0060C74
:1015600000D4060C00C8060C00BC060C00B0060C2B
:1015700000A4060B0099060C008D060B0082060BDA
:101580000077060B006C060B0061060A0057060B7D
:10159000004C060A0042060A0038060A002E060A17
:1015A0000024060A001A060A001006090007060AA7
:1015B00000FD050900F4050900EB050900E2050935
:1015C00000D9050900D0050900C7050900BE0509B5
:1015D00000B5050800AD050800A50509009C050833
:1015E00000940508008C050800840508007C0508A7
:1015F00000740508006C050700650508005D050717
:1016000000560508004E050700470507004005087D
:101610000038050700310507002A050700230507E4
:10162000001C050600160507000F05070008050643
:101630000002050700FB040600F5040700EE04069F
:1016400000E8040600E2040700DB040600D50406F7
:1016500000CF040600C9040600C3040600BD04064A
:1016600000B7040600B1040500AC040600A6040699
:1016700000A00405009B04060095040500900406E4
:10168000008A04050085040500800406007A04052C
:101690000075040500700405006B04050066040570
:1016A00000610405005C04050057040500520405B0
:1016B000004D04050048040500430405003E0404F1
:1016C000003A04050035040500300404002C04052C
:1016D0000027040400230405001E0404001A040467
:1016E0000016040500110404000D0404000904059B
:1016F000000404040000040400FC030400F80304D4
:1017000000F4030400F0030400EC030400E8030405
:1017100000E4030400E0030400DC030400D8030435
:1017200000D4030400D0030400CC030400C8030366
:1017300000C503030024F404D9201BC40C5C0E98DC
:1017400004C4095F0265077101F405F900FB04B3E5
:101750000048048700C1036900580355000303458E
:1017600000BE023A008402310053022A00290225F9
:101770000004022000E4011C00C8011900AF011799
:101780000098011400840113007101100061011020
:101790000051010E0043010D0036010B002B010B1F
:1017A0000020010B00150109000C010900030108CC
:1017B00000FB000800F3000800EB000700E400064F
:1017C00000DE000600D8000600D2000600CC0005AE
:1017D00000C7000500C2000500BD000400B90004F8
:1017E00000B5000400B1000400AD000400A900042D
:1017F00000A5000300A20003009F0004009B00035B
:10180000009800030095000200930003009000037D
:10181000008D0002008B0003008800020086000299
:101820000084000300810002007F0002007D0002AE
:10183000007B0002007900020077000100760002C0
:10184000007400020072000100710002006F0002CB
:10185000006D0001006C0002006A000100690002D6
:1018600000670001006600010065000100640002DD
:10187000006200010061000100600001005F0002E1
:10188000005D0001005C0001005B0001005A0001E6
:1018900000590001005800010057000100560001E6
:1018A00000550001005400010053000000530001E6
:1018B000005200010051000100500001004F0001E2
:1018C000004E0000004E0001004D0001004C0001E0
:1018D000004B0000004B0001004A000100490001DC
:1018E00000480000004800010047000100460000D9
:1018F00000460001004500000045000100440001D1
:1019000000430000004300010042000000420001CB
:10191000004100000041000100400001003F0000C4
:10192000003F0001003E0000003E0001003D0000BD
:10193000003D0001003C0000003C0000003C0001B4
:10194000003B0000003B0001003A0000003A0001AB
:1019500000390000003900010038000000380000A4
:101960000038000100370000003700010036000099
:101970000036000000360001003500000035000090
:101980000035000100340000003400000034000184
:10199000003300000033000000330001003200007B
:1019A0000032000000320001003100000031000070
:1019B0000031000100300000003000000030000164
:1019C000002F0000002F0000002F0000002F00015A
:1019D000002E0000002E0000002E0001002D00004F
:1019E000002D0000002D0000002D0001002C000043
:1019F000002C0000002C0000002C0001002B000037
:101A0000002B0000002B0000002B0001002A00002A
:101A1000002A0000002A0000002A0001002900001E
:101A20000029000000290000002900000029000111
:101A30000028000000280000002800000028000006
:101A400000280001002700000027000000270000F8
:101A500000270000002700010026000000260000EB
:101A600000260000002600000026000100250000DE
:101A700000250000002500000025000000250000D2
:101A800000250001002400000024000000240000C4
:101A900000240000002400010023000000230000B7
:101AA00000230000002300000023000000230000AA
:101AB000002300010022000000220000002200009C
:101AC000002200000022000000220001002100008E
:101AD0000021000000210000002100000021000082
:101AE0000021000000210001002000000020000073
:101AF0000020000000200000002000000020000066
:101B00000020000000200001001F0000001F000056
:101B1000001F0000001F0000001F0000001F000049
:101B2000001F0001001E0000001E0000001E00003B
:101B3000001E000000232C0000B8220000561800F0
:101B4000003A0F0000B8080000B104000071020064
:101B5000003E0100006265640A002C2073797374F2
:101B6000656D2073746F70706564212048656174C1
:101B700065725F49443A200042656420686561747B
:101B8000696E67206661696C6564004865617469A7
:101B90006E67206661696C65640045312048656147
:101BA00074696E67206661696C656400486561747C
:101BB000696E67206661696C6564004B494C4C45F1
:101BC000442E20001000AD0330016A0150022B01A9
:101BD00070030A019004F500B005E500D006D800B6
:101BE000F007CE001009C500300ABE00500BB70048
:101BF000700CB100900DAB00B00EA600D00FA2008B
:101C0000F0109D00101299003013950050149200AE
:101C100070158E0090168B00B0178700D0188400C6
:101C2000F0198100101B7E00301C7B00501D7900D4
:101C3000701E7600901F7300B0207000D0216E00DF
:101C4000F0226B00102469003025660050266300E6
:101C50007027610090285E00B0295C00D02A5900EE
:101C6000F02B5600102D5400302E5100502F4E00F6
:101C700070304B0090314800B0324500D033420004
:101C8000F0343E0010363B00303737005038330018
:101C900070392E00903A2900B03B2300D03C1B0045
:101CA000F03D1100103F0100F03F0000453120459C
:101CB00072723A204D415854454D50004572723A67
:101CC000204D415854454D5020424544004D415807
:101CD00054454D50207472696767657265640045AC
:101CE00031204572723A204D494E54454D500045C1
:101CF00072723A204D494E54454D502042454400A1
:101D00004D494E54454D5020747269676765726540
:101D100064004D383420582059205A204500202F87
:101D2000002042403A0020403A00F10FEF0FED0F43
:101D3000EA0FE70FE40FE10FDE0FDB0FD80FD50F2F
:101D4000206472697665722063757272656E743A8A
:101D50002000747275650066616C7365002074659F
:101D60006D706572617475726520707265776172ED
:101D70006E207472696767657265643A200020702E
:101D800072657761726E20666C616720636C656155
:101D90007265640A0020686F6D696E672073656EF6
:101DA00073697469766974793A2000747275650094
:101DB00066616C736500747275650066616C73654D
:101DC00000747275650066616C736500313D2E317B
:101DD0003800303D2E333235002F3331002F333170
:101DE000002F333100747275650066616C73650095
:101DF000203D2030780044726976657220726567F4
:101E00006973746572733A006F7409006F74707748
:101E100009007332676109007332676209006F6CF1
:101E20006109006F6C620900737473740900667352
:101E3000616374697665090073675F726573756CB9
:101E40007409007374616C6C677561726409004495
:101E50005256535441545553005374616C6C67751A
:101E60006172642074687273002D737461727409F6
:101E700000687973746572657369730A2D656E64A1
:101E80000900626C616E6B2074696D65006F666637
:101E90002074696D6509004F542070726577617216
:101EA0006E206861730A6265656E20747269676787
:101EB00065726564004F54207072657761726E00C0
:101EC0005B6D6D2F735D090070776D0A74687265C4
:101ED00073686F6C640900747374657009006D73C6
:101EE000746570730900737465616C746843686F1E
:101EF00070007673656E7365090050574D207363EB
:101F0000616C65090043532061637475616C09005D
:101F1000486F6C642063757272656E740052756EE2
:101F20002063757272656E74004D4158206375723E
:101F300072656E740000060900FE06018902FE202B
:101F4000FFFE07FE06FE000000060007010606066B
:101F50000200808080800080030303060103A0A0AC
:101F6000A00507070600FF5050F850F8505005092B
:101F7000090600FE2070A8A07028A8702006080896
:101F80000600FF40A848102048540805070706002F
:101F9000FF609090609890680103030602038080C0
:101FA000800207070602FF40808080808040020791
:101FB000070602FF804040404040800505050600BE
:101FC000008850F850880505050600002020F820FC
:101FD000200204040602FEC0404080050101060004
:101FE00002F8020202060200C0C004060606010052
:101FF000101020408080040606060100609090903A
:10200000906003060606010040C0404040E0040620
:10201000060601006090102040F00406060601004C
:10202000F020601010E00506060600001030509009
:10203000F810040606060100F080E01010E0040627
:10204000060601006080E09090600406060601002C
:10205000F0101020404004060606010060906090D9
:102060009060040606060100609090701060020502
:1020700005060200C0C000C0C00207070602FEC07D
:10208000C000C04040800505050600001860806063
:1020900018050303060001F800F805050506000011
:1020A000C0300830C004070706010060901060408F
:1020B00000400506060600007090A8B08070050676
:1020C00006060000205088F88888050606060000ED
:1020D000F088F08888F00406060601006090808091
:1020E0009060040606060100E090909090E00406DF
:1020F00006060100F080E08080F00406060601007C
:10210000F080E0808080040606060100609080B0C8
:1021100090600406060601009090F09090900306EF
:1021200006060100E040404040E0050606060000CB
:1021300038101010906004060606010090A0C0A0A0
:1021400090900406060601008080808080F00506DD
:102150000606000088D8A8A888880406060601009C
:1021600090D0B09090900506060600007088888890
:102170008870040606060100E09090E08080040765
:10218000070601FF609090D0B060100406060601BB
:1021900000E09090E09090040606060100609040F8
:1021A000209060050606060000F82020202020046C
:1021B00006060601009090909090600406060601C5
:1021C00000909090F060600506060600008888A8E0
:1021D000A8D88805060606000088502020508805EB
:1021E0000606060000888850202020040606060106
:1021F00000F010204080F0030606060100E0808019
:102200008080E00406060601008080402010100354
:102210000606060100E020202020E005030306005A
:10222000032050880501010600FEF80202020602A2
:1022300004804004040406010070909070040606B7
:102240000601008080E09090E00404040601007024
:1022500080807004060606010010107090907004D3
:10226000040406010060B0C07004060606010020E8
:102270005040E040400406060601FE609090701059
:10228000600406060601008080E090909003060638
:102290000601004000C04040E00308080601FE209F
:1022A0000060202020A0400406060601008080A0D7
:1022B000C0A090030606060100C040404040E00573
:1022C0000404060000D0A8A888040404060100E065
:1022D000909090040404060100609090600406064B
:1022E0000601FEE09090E080800406060601FE7084
:1022F0009090701010040404060100A0D0808004A7
:10230000040406010070C030E00406060601004027
:1023100040E04050200404040601009090907004B6
:102320000404060100909060600504040600008823
:10233000A8A85004040406010090606090040606FA
:102340000601FE909090709060040404060100F075
:102350002040F00307070601002040408040402055
:102360000107070602FF80808080808080030707C6
:102370000601008040402040408004020206010324
:1023800050A0FFFFFFFFFFFFFFFFFFFFFFFFFFFF6B
:10239000FFFFFFFFFFFFFFFFFFFFFFFFFFFFFFFF4D
:1023A000FFFFFF000000060007010606060200808E
:1023B00000808080800406060601FF2070A0A070C7
:1023C000200507070600FF304840F04040F80505AB
:1023D00005060000A8508850A805060606000088DB
:1023E00050F820F8200107070602FF808080008057
:1023F00080800407070601FF708060906010E00392
:102400000101060105A0060707060000788494A4D0
:1024100094847803050506010160A06000E00505CD
:10242000050600002850A05028040303060100F010
:102430001010040101060102F006070706000078EB
:1024400084B4A4A48478040101060105F004030304
:102450000601026090600507070600FF2020F820B3
:102460002000F803050506010140A02040E0030517
:1024700005060101C0204020C002020206020440FD
:10248000800405050601FF9090B0D0800506060681
:10249000000078E8E86828280101010602028002AD
:1024A00002020602FE408003050506010140C0400D
:1024B00040E003050506010140A04000E0050505D8
:1024C000060000A0502850A00508080600FF40C0E4
:1024D0004050703078100508080600FF40C040509A
:1024E000680810380508080600FFC0204030F030AA
:1024F0007810040707060100200020608090600526
:10250000070706000040202050708888050707064E
:102510000000102020507088880507070600002062
:10252000502050708888050707060000285020506A
:1025300070888805070706000050002050708888C2
:102540000507070600002050205070888805060601
:1025500006000078A0F0A0A0B80408080601FE60FC
:10256000908080906020400407070601004020F022
:1025700080E080F00407070601002040F080E08042
:10258000F00407070601002050F080E080F0040707
:10259000070601005000F080E080F0030707060105
:1025A000008040E0404040E0030707060100204073
:1025B000E0404040E003070706010040A0E0404043
:1025C00040E0030707060100A000E0404040E005AE
:1025D00006060600007048E8484870040707060130
:1025E0000050A090D0B09090040707060100402052
:1025F0006090909060040707060100204060909072
:1026000090600407070601002050609090906004DD
:10261000070706010050A06090909060040707062D
:10262000010050006090909060050505060000884C
:10263000502050880408080601FF1070B0B0D0D0B8
:10264000E08004070706010040209090909060040D
:10265000070706010020409090909060040707064D
:1026600001002050909090906004070706010050F0
:102670000090909090600507070600001020885099
:1026800020202004060606010080E09090E08004EF
:1026900006060601006090A0A090A00407070601AE
:1026A0000040200070909070040707060100204051
:1026B0000070909070040707060100205000709091
:1026C000907004070706010050A0007090907004FD
:1026D000060606010050007090907004070706017E
:1026E000002050207090907005040406000070A82F
:1026F000B0780406060601FE708080702040040752
:102700000706010040200060B0C070040707060102
:102710000020400060B0C070040707060100205090
:102720000060B0C070040606060100500060B0C032
:1027300070030707060100804000C04040E0030727
:1027400007060100204000C04040E00307070601E3
:102750000040A000C04040E0030606060100A000C3
:10276000C04040E004070706010030601070909000
:102770006004070706010050A000E0909090040755
:1027800007060100402000609090600407070601E2
:102790000020400060909060040707060100205070
:1027A000006090906004070706010050A000609050
:1027B00090600406060601005000609090600505D8
:1027C000050600002000F800200404040601007043
:1027D000B0D0E00407070601004020009090907000
:1027E000040707060100204000909090700407073E
:1027F000060100205000909090700406060601002B
:102800005000909090700409090601FE204000904D
:1028100090907090600408080601FE8080E090901F
:10282000E080800408080601FE50009090907090AF
:102830006000060900FE000000000001090008FE1B
:10284000000005080806000040F0C8888898781045
:10285000050808060000C0F88888888888F80505FB
:10286000050600012030F830200508080600002089
:1028700070F820202020E00509090600FF2070A83C
:10288000A8B8888870200509090600FFE080C0B05C
:10289000A8283028280509090600FFF8A888888894
:1028A0008888A8F8050A0A0600FE20505050508873
:1028B000A8A8887003030306000340A0400006098F
:1028C00000FE0701920321207FFF07FF07FF0000A2
:1028D000000600000107070602008080808080005B
:1028E00080030202060105A0A005070706000050AC
:1028F00050F850F850500507070600002078A070E7
:1029000028F020050707060000C0C81020409818CE
:102910000507070600006090A040A8906802030326
:10292000060104C0408003070706010020408080A4
:1029300080402003070706010080402020204080BF
:1029400005050506000120A870A82005050506005C
:10295000012020F820200203030602FFC04080056A
:102960000101060003F8020202060200C0C00505CC
:1029700005060001081020408005070706000070CA
:1029800088888888887003070706010040C0404097
:102990004040E0050707060000708808708080F856
:1029A000050707060000F81020100808F0050707C3
:1029B00006000010305090F81010050707060000C0
:1029C000F880F0080888700507070600007080800E
:1029D000F0888870050707060000F80810202020FE
:1029E0002005070706000070888870888870050732
:1029F000070600007088887808087002050506023E
:102A000000C0C000C0C00206060602FFC0C000C071
:102A10004080040707060000102040804020100579
:102A20000303060002F800F80407070601008040CF
:102A3000201020408005070706000070880810203D
:102A4000002005070706000070880868A8A8700520
:102A50000707060000708888F88888880507070639
:102A60000000F08888F08888F005070706000070ED
:102A7000888080808870050707060000F0888888B5
:102A80008888F0050707060000F88080F08080F84D
:102A9000050707060000F88080F0808080050707A2
:102AA000060000708880B888887005070706000057
:102AB000888888F888888801070706020080808057
:102AC00080808080050707060000381010101090E5
:102AD000600507070600008890A0C0A09088050741
:102AE00007060000808080808080F80507070600C8
:102AF0000088D8A888888888050707060000888885
:102B0000C8A8988888050707060000708888888804
:102B10008870050707060000F08888F0808080052F
:102B2000070706000070888888A8906805070706D0
:102B30000000F08888F0A09088050707060000785C
:102B40008080700808F0050707060000F8202020A4
:102B5000202020050707060000888888888888705C
:102B60000507070600008888888888502005070721
:102B70000600008888888888A85005070706000096
:102B800088885020508888050707060000888888B4
:102B900050202020050707060000F808102040807C
:102BA000F8030707060100E08080808080E00505CB
:102BB000050600018040201008030707060100E019
:102BC0002020202020E00503030600042050880573
:102BD0000101060000F80202020602058040050518
:102BE0000506000070087888780507070600008051
:102BF00080B0C88888F005050506000070808088D0
:102C00007005070706000008086898888878050599
:102C1000050600007088F880700507070600003080
:102C200048E0404040400506060600FF708888786E
:102C300008700507070600008080B0C888888801F2
:102C40000707060200800080808080800308080655
:102C500001FF200020202020A040040707060000DC
:102C6000808090A0C0A090030707060100C04040EC
:102C7000404040E0050505060000D0A8A8A8A8052A
:102C80000505060000B0C88888880505050600000F
:102C900070888888700506060600FFF08888F08036
:102CA000800506060600FF7888887808080505056F
:102CB000060000B0C8808080050505060000708011
:102CC0007008F00407070600004040E04040403034
:102CD0000505050600008888889868050505060032
:102CE0000088888850200505050600008888A8A867
:102CF0005005050506000088502050880506060688
:102D000000FF888888780870050505060000F8101F
:102D10002040F80307070601002040408040402083
:102D200001070706020080808080808080030707FB
:102D3000060100804040204040800502020600025B
:102D4000689000000006000001050800FF06012150
:102D5000023520FFFF07FF06FF09005022165680AC
:102D60008080800080153353A0A0A0025757505098
:102D7000F850F850500257572070A0702870201358
:102D8000355580A040A02002475740A0A040A0A0F9
:102D900050251353808080122656408080808040CA
:102DA0001226568040404040800245559060F060B9
:102DB000900255552020F8202011335360408004A4
:102DC0004151F011335340E040024656101020406C
:102DD000808012365640A0A0A0A04012365640C0B7
:102DE000404040E00246566090106080F002465637
:102DF000F020601090600246562060A0F020200273
:102E00004656F080E01090600246566080E0909058
:102E100060024656F0102020404002465660906006
:102E2000909060024656609090701060122555C0D8
:102E3000C000C0C011365660600060408012365637
:102E4000204080804020034353F000F0123656802B
:102E5000402020408012365640A0204000400158BB
:102E600058304898A8A8904030024656609090F09C
:102E70009090024656E090E09090E00246566090B6
:102E800080809060024656E090909090E002465616
:102E9000F080E08080F0024656F080E08080800282
:102EA0004656609080B090600246569090F09090A8
:102EB00090123656E040404040E0024656702020D6
:102EC00020A04002465690A0C0A0A0900246568086
:102ED00080808080F002465690F0F09090900246FC
:102EE0005690D0F0B0B090024656609090909060AE
:102EF000024656E09090E08080014757609090D065
:102F0000B06010024656E09090E090900246566005
:102F10009040209060123656E040404040400246CB
:102F2000569090909090600246569090909060607D
:102F3000024656909090F0F0900246569090606055
:102F40009090025656888850202020024656F01055
:102F5000204080F0123656E080808080E0024656A5
:102F6000808040201010123656E020202020E016ED
:102F7000325240A0014151F0162252804002445486
:102F8000709090700246568080E09090E012345429
:102F90006080806002465610107090907002445419
:102FA00060B0C060024656205040E04040014555A8
:102FB00060907010600246568080E09090901236CB
:102FC000564000C04040E01137572000202020A08C
:102FD00040024656808090E09090123656C04040A5
:102FE0004040E0025454D0A8A8A8024454E0909075
:102FF0009002445460909060014555E090E08080DC
:103000000145557090701010024454A0D080801279
:10301000345460C020C00246564040E04050200278
:10302000445490909070123454A0A0A04002545484
:1030300088A8A85002445490606090014555909033
:10304000709060024454F02040F002475730402016
:10305000C0204030221656808080808080024757F2
:10306000C02040304020C006425250A0FFFFFFFF6A
:10307000FFFFFFFFFFFFFFFFFFFFFFFFFFFFFFFF60
:10308000FFFFFFFFFFFFFFFFFFFFFFFFFF090050F4
:103090002216568000808080800146562070A0A0B5
:1030A00070200246562050E04050A00255558870CE
:1030B0005070880256568850F820F8202217578002
:1030C0008080008080800247577080E0907010E020
:1030D000173151A002565670A8C8C8A870143555AB
:1030E00060A06000E003435350A050123353E0202F
:1030F00020143151E002565670E8D8E8D8701731E4
:1031000051E015335340A04012355540E04000E0F7
:1031100014355540A02040E0143555C020C020C0D3
:103120001622524080014555909090E080025656FC
:1031300078E8E86828282411518011225240801430
:10314000355540C04040E014355540A04000E003F4
:103150004353A050A0024757808080A060F0200217
:1031600047578080A0D01020700247578040806071
:10317000A0F02012365640004080A0400247574041
:10318000206090F0909002475720406090F090901F
:1031900002475760906090F0909002475750A060AF
:1031A00090F0909002475790006090F09090024706
:1031B0005760906090F0909002465670A0A0F0A0EA
:1031C000B001475760908080906040024757402090
:1031D000F080E080F00247572040F080E080F0026D
:1031E00047576090F080E080F00247579000F080F1
:1031F000E080F01237578040E0404040E0123757FF
:103200002040E0404040E012375740A0E0404040BE
:10321000E0123757A000E0404040E00256567048A8
:10322000E848487002475750A090D0B090900247AD
:1032300057402060909090600247572040609090E7
:10324000906002475760906090909060024757509E
:10325000A0609090906002475790006090909060BE
:10326000123353A040A002465670B0B0D0D0E00256
:103270004757402090909090600247572040909090
:1032800090906002475760909090909060024757EE
:103290009000909090906002575710208850202006
:1032A0002002465680E09090E0800246566090A052
:1032B000A090A0024757402000709090700247579E
:1032C00020400070909070024757205000709090FE
:1032D0007002475750A00070909070024656500000
:1032E0007090907002475760906070909070025498
:1032F00054F068B0781135556080806040024757BF
:1033000040200060B0C06002475720400060B0C05D
:103310006002475760900060B0C06002465650009F
:1033200060B0C060123757804000C04040E01237A4
:1033300057204000C04040E012375740A000C04036
:1033400040E0123656A000C04040E0024757A0407F
:10335000A01070906002475750A000E0909090023B
:10336000475740200060909060024757204000601F
:1033700090906002475760900060909060024757BD
:1033800050A000609090600246569000609090605F
:103390001235554000E0004002445470B0D0E002C5
:1033A000475740200090909070024757204000906F
:1033B000909070024757609000909090700246562F
:1033C000900090909070014858204000909070902C
:1033D000600147578080E090E0808001475790006F
:1033E000909070906001050700FE0500FB01F2203F
:1033F000FFFE05FE05FE02004002152580808000CC
:1034000080053242A0A002556550F850F8500146A0
:10341000562070C030E020025565901020404802D0
:1034200055656080689068051222808002253540CD
:10343000808080400225358040404080043343A096
:1034400040A003334340E040012232408004314138
:10345000E002112180025565081020408002455588
:103460006090909060022535C04040404002455534
:10347000E0106080F0024555E0106010E002455514
:103480002060A0F020024555F080E010E002455594
:103490006080E09060024555F010204040024555A4
:1034A0006090609060024555609070106003132337
:1034B00080008002142480008080023545204080F6
:1034C0004020033343E000E0023545804020408047
:1034D000024555E0106000400255657088B8A8703C
:1034E000024555609090F090024555E090E090E0E4
:1034F0000235456080808060024555E0909090E004
:10350000023545E080E080E0023545E080E08080E3
:103510000245557080B090700245559090F09090A3
:10352000023545E0404040E00245553010109060C3
:1035300002455590A0C0A09002354580808080E073
:1035400002556588D8A8888802455590D0B09090DB
:103550000245556090909060024555E09090E08063
:10356000014656609090906010024555E09090E0C2
:103570009002455570806010E0023545E0404040C3
:103580004002455590909090600245559090A0A0C3
:103590004002556588A8A8A85002455590906090B3
:1035A000900245559090701060023545E0204080B3
:1035B000E0022535C0808080C00255658040201023
:1035C00008022535C0404040C005324240A00241BB
:1035D00051F00522328040024454709090700245B0
:1035E0005580E09090E00234446080806002455550
:1035F000107090907002445460B0C0600235452055
:1036000040E0404000465670909070106002455572
:1036100080E0909090021525800080808000273700
:10362000400040404040800245558090A0E090021C
:1036300015258080808080025464F0A8A8A80244E8
:1036400054E090909002445460909060004656E0A0
:103650009090E08080004656709090701010023478
:1036600044A0C0808002445470C030E00235454020
:10367000E040402002445490909070024454909056
:10368000A040025464A8A85050023444A04040A076
:10369000004656909090701060024454F02040F024
:1036A0000235456040804060021525808080808022
:1036B000023545C0402040C005425250A0FFFFFFE8
:1036C000FFFFFFFFFFFFFFFFFFFFFFFFFFFFFFFF0A
:1036D000FFFFFFFFFFFFFFFFFFFFFFFFFFFF0200F6
:1036E00040FFFFFFFFFFFFFFFFFFFFFFFFFFFFFFA9
:1036F000FFFFFFFFFFFFFFFFFFFFFFFFFFFFFFFFDA
:10370000FFFFFFFFFFFFFFFFFFFFFFFFFFFFFFFFC9
:10371000FFFFFFFFFFFFFFFFFFFFFFFFFFFFFFFFB9
:10372000FFFFFFFFFFFFFFFFFFFFFFFFFFFFFFFFA9
:10373000FFFFFFFFFFFFFFFFFFFFFFFFFFFFFFFF99
:1037400001060D00FE09016602D620FFFE0BFE0AEF
:10375000FE0D00602219698080808080808000805A
:10376000183363A0A0A00357675050F850F850508A
:103770000259692078A0A0702828F02002596948D1
:10378000A85010204050A89002586840A0A040A027
:10379000989068281363808080113B6B20404080A4
:1037A00080808080404020113B6B80404020202062
:1037B000202040408006556520A870A8200455654B
:1037C0002020F82020113363604080065161F811F9
:1037D000336340E0400259690808101020404080DF
:1037E0008002596920508888888888502002596949
:1037F0002060A02020202020F802596970888808C5
:1038000010204080F8025969F808102070080888D4
:1038100070025969101030505090F8101002596918
:10382000F88080B0C8080888700259697088808064
:10383000F088888870025969F808101020204040EC
:103840004002596970888888708888887002596930
:1038500070888888780808887011386840E04000CF
:103860000040E04011386840E040000060408002C5
:103870005969081020408040201008045464F80062
:1038800000F8025969804020100810204080025939
:103890006970888808102020002002596970888883
:1038A00098A8A8B080780259692050888888F8883C
:1038B0008888025969F048484870484848F00259D9
:1038C00069708880808080808870025969F04848DB
:1038D0004848484848F0025969F8808080F0808064
:1038E00080F8025969F8808080F0808080800259D9
:1038F0006970888080809888887002596988888873
:1039000088F888888888123969E040404040404003
:1039100040E00259693810101010101090600259E0
:1039200069888890A0C0A0908888025969808080AA
:103930008080808080F80259698888D8A8A8888803
:10394000888802596988C8C8A8A8989888880259A0
:1039500069708888888888888870025969F08888A2
:1039600088F080808080015A6A708888888888887A
:10397000A87008025969F0888888F0A090888802A9
:103980005969708880807008088870025969F82029
:103990002020202020202002596988888888888853
:1039A0008888700259698888888850505020200281
:1039B000596988888888A8A8A8A850025969888861
:1039C00050502050508888025969888850502020D3
:1039D000202020025969F808101020404080F8117A
:1039E0003B6BE0808080808080808080E00259692D
:1039F000808040402010100808113B6BE020202000
:103A0000202020202020E0085363205088015161AD
:103A1000F82A226280400256667008788898680208
:103A20005969808080F088888888F002566670889E
:103A300080808870025969080808788888888878A2
:103A40000256667088F88088700259693048404094
:103A5000F040404040005868708888887808887036
:103A6000025969808080B0C8888888881238684088
:103A700000C040404040E0004A6A10003010101082
:103A80001090906002596980808090A0C0A09088BA
:103A9000123969C040404040404040E0025666D084
:103AA000A8A8A8A888025666B0C888888888025640
:103AB00066708888888870005868F0888888F080E8
:103AC00080800058687888888878080808025666D8
:103AD000B0C880808080025666708860108870024E
:103AE00058684040F0404040483002566688888818
:103AF00088986802566688888850502002566688E2
:103B000088A8A8A8500256668850202050880058DF
:103B1000688888889868088870025666F81020407F
:103B200080F8015B6B1820202020C0202020201866
:103B3000221969808080808080808080015B6BC0DA
:103B4000202020201820202020C008536348A8905F
:103B5000FFFFFFFFFFFFFFFFFFFFFFFFFFFFFFFF75
:103B6000FFFFFFFFFFFFFFFFFFFFFFFFFFFFFFFF65
:103B7000FF0D006022196980008080808080808035
:103B80000358682070A8A0A0A87020025969304886
:103B90004040E0404048B0035666887050507088FE
:103BA00002596988885050F820F82020221969802D
:103BB0008080800080808080124A6A60908060905F
:103BC00090601090601A3262A0A00359697088A8B2
:103BD000D8C8D8A88870045767700878887800F823
:103BE0000356662850A0A05028045363F80808160E
:103BF0003161E00359697088E8D8D8E8D888700A3C
:103C00005161F8174464609090600357672020F872
:103C1000202000F807356540A02040E007356540CA
:103C2000A04020C02A226240800058688888888886
:103C300098E8808002596978E8E8E8E86828282848
:103C4000262161C0202262408007356540C0404087
:103C5000E0045767708888887000F8035666A050A3
:103C6000282850A0025A6A40C04040E0081828386E
:103C700008025A6A40C04040E01028081038025A32
:103C80006A40A04020A0481828380802596920003E
:103C900020204080888870025A6A40200020508886
:103CA00088F88888025A6A10200020508888F8888E
:103CB00088025A6A30480020508888F88888025A5A
:103CC0006A28500020508888F88888025A6A505024
:103CD0000020508888F88888025A6A205020205096
:103CE0008888F8888802596958A0A0A0B0E0A0A0F0
:103CF000B8005B6B70888080808080887020400274
:103D00005A6A402000F88080F08080F8025A6A10D9
:103D10002000F88080F08080F8025A6A304800F86D
:103D20008080F08080F8025A6A505000F88080F05D
:103D30008080F8123A6A804000E04040404040E015
:103D4000123A6A204000E04040404040E0124A6A97
:103D5000609000E04040404040E0123A6AA0A0007D
:103D6000E04040404040E0025969F0484848E84897
:103D70004848F0025A6A2850008888C8A89888885D
:103D8000025A6A40200070888888888870025A6ABF
:103D900010200070888888888870025A6A3048002D
:103DA00070888888888870025A6A285000708888CD
:103DB00088888870025A6A5050007088888888887D
:103DC000700355658850205088015B6B0870989887
:103DD000A8A8A8C8C87080025A6A402000888888AD
:103DE00088888870025A6A102000888888888888A5
:103DF00070025A6A30480088888888888870025A19
:103E00006A50500088888888888870025A6A102012
:103E1000008888502020202002596980F0888888F6
:103E2000F0808080025969609090A0A0908888B04E
:103E30000259694020007008788898680259691012
:103E40002000700878889868025969304800700826
:103E500078889868025969285000700878889868AE
:103E6000025969505000700878889868025A6A3080
:103E7000483000700878889868025666702870A0EC
:103E8000A850005868708880808870204002596966
:103E90004020007088F880887002596910200070F6
:103EA00088F88088700259693048007088F88088E6
:103EB000700259695050007088F880887012396912
:103EC000804000C040404040E0123969204000C0BE
:103ED00040404040E0124969609000C0404040408E
:103EE000E0123969A0A000C040404040E0025A6A98
:103EF00050206010708888888870025969285000A6
:103F0000B0C88888888802596940200070888888ED
:103F1000887002596910200070888888887002595A
:103F20006930480070888888887002596928500074
:103F30007088888888700259695050007088888815
:103F40008870035767202000F80020200158680877
:103F50007098A8A8C8708002596940200088888895
:103F600088986802596910200088888888986802B3
:103F70005969304800888888889868025969505083
:103F800000888888889868005B6B10200088888883
:103F90009868088870005A6A8080B0C88888C8B05D
:103FA0008080005B6B505000888888986808887013
:103FB0000000000000000000000000000000000001
:103FC00000000000000000000000000000000000F1
:103FD0000000000C000000000000000C00000000C9
:103FE000000000120000000000000023000000009C
:103FF00000000021000000000000004C80000000D4
:104000000000005E80000000000000924000000000
:10401000000000A14000000000000121200000007D
:104020000000027F9000000000000200100000006D
:10403000000007FFF8000000000004000800000076
:104040000000080004000000000008000600000056
:1040500000001000020000000000301E01000000FF
:104060000000207F81000000000041FFE080000090
:10407000000043FCF08000000000873B7840000017
:1040800000018EDBFC60000000010FEBCC20000083
:1040900000021FEDB610000000021FDEB610000087
:1040A000000439CD7F080000000436E0FF0800005E
:1040B00000087EC0BB84000000187F005D86000001
:1040C00000107FC0ED82000000203CC073010000A2
:1040D00000203B337F01000000701BE77E0380005F
:1040E00000C81DEEDE04C00000880FDEDC044000C6
:1040F00001240FDF3C092000012607DBF81920000E
:10410000027203E7F0139000025101FFE0229000D9
:104110000489007F802448000904801E0048240090
:104120000BFE400000DFF4001000400000800200A1
:104130001FFFFFFFFFFFFE00000000000000000067
:10414000000000000000000000000000000000006F
:104150001022103C3C0E1F001022100422110400FB
:104160001022100822110400102210083C11040033
:10417000102210102211040010221020221104001D
:104180001E1C1E3C3C0E040000000000000000004D
:10419000000000000000000000000000000000001F
:1041A000000000000000000000000000000000000F
:1041B00000000000000000000000000000000000FF
:1041C00000000000000000000000000000000000EF
:1041D00000000000000000000000000000000000DF
:1041E0000000000000000000000000000000304857
:1041F000483020202020001A0025753A25303275DD
:1042000000253032753A25303275002520200025F2
:1042100020000000007E006000600060F87ECC603E
:10422000CC60CC60F860CC00CC00CC00CC000000AE
:10423000000000000000000000000000000000007E
:104240000000000000000000FE7FFE7F066000000E
:10425000000000000000F00FF81FF81FF81FF00F1B
:10426000F00FF81FF81FF81FE007C00380010000DF
:1042700000000000FE7F0E702664724E7A5E324CA3
:104280008241324C7A5E724E26640E70FE7F0000D0
:1042900000000000FE7F0E70C663C24382411A58C0
:1042A000BA5D1A588241C243C6630E70FE7F000099
:1042B0000000000088088808101120222022101118
:1042C00088088808101100000000000000000000AD
:1042D00000000000202210118808880810112022F8
:1042E00020221011880800000000000000000000DB
:1042F0000000434F4D4D554E49434154494F4E00E8
:1043000044525952554E004552524F525300494E55
:10431000464F004543484F0020573A00426564200D
:10432000636F6F6C696E672E2E2E00426564206885
:10433000656174696E672E2E2E00205A3A0020594E
:104340003A0020436F756E7420583A0020453A00B9
:10435000205A3A0020593A00583A003A0043617016
:104360003A00205A00205900580020204D61783A28
:104370002000205A00205900580020204D696E3A34
:1043800020004F6E20004F666600536F66742065F4
:104390006E6473746F70733A20004B642000236462
:1043A0006566696E652044454641554C545F004B37
:1043B00069200023646566696E6520444546415561
:1043C0004C545F004B70200023646566696E652065
:1043D00044454641554C545F005049442041757452
:1043E0006F74756E652066696E69736865642120F7
:1043F00050757420746865206C617374204B702C48
:10440000204B6920616E64204B6420636F6E73746F
:10441000616E74732066726F6D2062656C6F7720B9
:10442000696E746F20436F6E666967757261746937
:104430006F6E2E680A00504944204175746F747580
:104440006E65206661696C6564212074696D656FB5
:1044500075740A00453120544845524D414C205254
:10446000554E415741590042454420544845524D0C
:10447000414C2052554E4157415900546865726D68
:10448000616C2052756E6177617900453120486515
:104490006174696E67206661696C65640042656479
:1044A0002068656174696E67206661696C65640087
:1044B00048656174696E67206661696C6564005067
:1044C0004944204175746F74756E65206661696C2E
:1044D0006564212054656D70657261747572652024
:1044E000746F6F20686967680A00204B643A200087
:1044F000204B693A2000204B703A20000A20436C80
:10450000617373696320504944200A002054753A4E
:104510002000204B753A2000206D61783A20002061
:104520006D696E3A200020643A2000206269617350
:104530003A2000504944204175746F74756E6520AF
:1045400073746172740A00504944204175746F7429
:10455000756E65206661696C656421204261642026
:104560006578747275646572206E756D6265720A25
:10457000004F666673657473206170706C69656462
:10458000004572723A20546F6F20666172210054A8
:104590006F6F206661722066726F6D20726566654E
:1045A00072656E636520706F696E740A00496E7380
:1045B0006572742066696C616D656E7420616E64ED
:1045C00020707265737320627574746F6E20286F2B
:1045D00072204D313038290A0050726573732062A1
:1045E0007574746F6E20286F72204D313038292019
:1045F000746F2068656174206E6F7A7A6C650A004A
:10460000496E736572742066696C616D656E7420A5
:10461000616E6420707265737320627574746F6E5E
:1046200020286F72204D313038290A0047322F4739
:10463000332062616420706172616D6574657273AC
:104640000A00536C6565702E2E2E00205A3A200009
:1046500020593A200042656420583A2000436C6992
:10466000636B20746F20726573756D652E2E2E003E
:104670004E6F206D6F76652E00456E642066696C06
:1046800065206C6973740A00426567696E2066690B
:104690006C65206C6973740A004D31323500286EE8
:1046A0006F2066696C6529005344207072696E74CE
:1046B000696E67206279746520004E6F74205344E0
:1046C000207072696E74696E670A00437572726554
:1046D0006E742066696C653A20005072696E7420B1
:1046E00074696D653A20006F66660013430E4307D8
:1046F000430043F24244454255473A004D3131337D
:104700002053006F6B004C756C7A426F74205441DB
:104710005A203620526574726F204F66662E005400
:104720004845524D414C5F50524F54454354494FB8
:104730004E004155544F5245504F52545F53445FC1
:1047400053544154555300454D455247454E4359E6
:104750005F50415253455200434153455F4C4947D6
:1047600048545F4252494748544E45535300544FB2
:1047700047474C455F4C494748545300534F4654B4
:10478000574152455F504F574552004255494C449E
:104790005F50455243454E54004C4556454C494E9A
:1047A000475F44415441005A5F50524F42450041D7
:1047B00055544F4C4556454C005052494E545F4A53
:1047C0004F420050524F4752455353004155544FAA
:1047D0005245504F52545F54454D5000564F4C5522
:1047E0004D455452494300454550524F4D005345A5
:1047F0005249414C5F584F4E5F584F46460046491C
:10480000524D574152455F4E414D453A4D61726C94
:10481000696E20204649524D574152455F564552D8
:1048200053494F4E3A312E312E392E32392E322005
:1048300045585452554445525F545950453A536D6A
:10484000616C6C4C6179657220534F555243455FE2
:10485000434F44455F55524C3A68747470733A2F15
:104860002F636F64652E616C6570686F626A656343
:1048700074732E636F6D2F646966667573696F6EEE
:104880002F4D41524C494E2050524F544F434F4CA4
:104890005F56455253494F4E3A312E30204D4143D9
:1048A00048494E455F545950453A4C756C7A426FB1
:1048B000742054415A203620526574726F20455836
:1048C0005452554445525F434F554E543A3120554A
:1048D0005549443A38343566303033632D6165626A
:1048E000642D346531642D626133612D6132303164
:1048F00032366437393330660A002F2F20004D31AD
:10490000343520533C696E6465783E206F757420A1
:104910006F662072616E67652028302D31290A008C
:10492000205400205200416363656C6572617469B4
:104930006F6E3A20500020466C6F773A200050721C
:104940006F6265205A204F66667365743A2000498D
:104950006E76616C69642065787472756465720A3C
:104960000020643A0020693A0020703A0043290A86
:104970000061626C656420286D696E2074656D70DD
:104980002000436F6C6420657874727564657320D1
:10499000617265200020643A0020693A0020703A74
:1049A000004E6F2063617365206C696768740A004C
:1049B000426564204C6576656C696E6720004661CF
:1049C000696C656420746F20656E61626C6520425D
:1049D0006564204C6576656C696E670A00426564A3
:1049E000204C6576656C20436F7272656374696FE5
:1049F0006E204D61747269783A00454550524F4DB2
:104A0000204F4B0A003F5A206F7574206F6620724A
:104A1000616E676520282D3220746F2035290A00C9
:104A20003A200050726F6265205A204F66667365A7
:104A300074003F4B2076616C7565206F7574206F34
:104A4000662072616E67652028302D3130292E0A6C
:104A500000416476616E6365204B3D006178697347
:104A60003A70776D5F7363616C65207C73746174F9
:104A700075735F726573706F6E73657C0A00524D5B
:104A8000532063757272656E74005365742063758C
:104A90007272656E7400456E61626C65640900092E
:104AA0000041637469766520457874727564657237
:104AB0003A2000496E76616C69642065787472757D
:104AC0006465720A00526573656E643A2000204284
:104AD000002050006F6B0020746F6F206C6F6E674A
:104AE00020657874727573696F6E20707265766573
:104AF0006E7465640A0020636F6C6420657874725C
:104B00007573696F6E2070726576656E7465640A80
:104B100000627573793A2070617573656420666F01
:104B20007220696E7075740A00627573793A20702C
:104B3000617573656420666F7220757365720A0013
:104B4000627573793A2070726F63657373696E670B
:104B50000A004B494C4C45442E20004B494C4C20FC
:104B6000636175736564206279204B494C4C206207
:104B70007574746F6E2F70696E0A004B494C4C450A
:104B8000442E20004B494C4C2063617573656420B2
:104B9000627920746F6F206D75636820696E616340
:104BA000746976652074696D65202D206375727255
:104BB000656E7420636F6D6D616E643A2000506C99
:104BC00065617365207265736574005052494E5477
:104BD00045522048414C544544005072696E7465FA
:104BE000722068616C7465642E206B696C6C282976
:104BF0002063616C6C6564210A0050726F62696E9B
:104C000067206661696C6564004D3131372042650B
:104C100064206C6576656C696E67206661696C6599
:104C2000642E0A4730205A31300A47302045300A76
:104C30004D3330302050323520533838300A4D3320
:104C40003030205035302053300A4D333030205032
:104C5000323520533838300A4D333030205035301B
:104C60002053300A4D3330302050323520533838FD
:104C7000300A47342053310050524F4245204641BC
:104C8000494C20434C45414E204E4F5A5A4C450A00
:104C9000004D3131372050726F6265207375636348
:104CA00065737366756C0A004D31303920523137A7
:104CB000300A4D313137205265776970696E67204F
:104CC0006E6F7A7A6C650A4730205A31300A4D315E
:104CD000303920523137300A4D3131372052657723
:104CE0006970696E67206E6F7A7A6C650A47313237
:104CF000205030205331322054300A4D313034208E
:104D0000533136300A4D3131372050726F62696E3F
:104D10006720626564000000A0C100809643000027
:104D200000000000484200004842000040400000EF
:104D300000005761726E696E673A20486F6D696E48
:104D4000672042756D702044697669736F72203CEC
:104D500020310A00020204000000000000000000F0
:104D60000000400000A0430080A04300008743FFF4
:104D700001FF4D3630303A20546F6F20636F6C6402
:104D800000486F74656E6420746F6F20636F6C648D
:104D90000A002F2F616374696F6E3A7061757365D5
:104DA0000A00496E736572742066696C616D656E88
:104DB0007420616E64207072657373206275747400
:104DC0006F6E20286F72204D313038290A002F2F46
:104DD000616374696F6E3A726573756D650A007C04
:104DE0003C3E5E2B3D3F2F5B5D3B2C2A225C004509
:104DF00072726F722077726974696E6720746F20A7
:104E0000454550524F4D210A00454550524F4D20C7
:104E10006461746173697A65206572726F722E0ABB
:104E200000290A002062797465733B206372632055
:104E30000053657474696E67732053746F72656490
:104E4000202800290A002062797465733B20637270
:104E50006320002073746F726564207365747469D5
:104E60006E677320726574726965766564202800C8
:104E7000202863616C63756C6174656429210A0084
:104E800020213D2000454550524F4D2043524320A4
:104E90006D69736D61746368202D202873746F725F
:104EA00065642920002053697A653A2000496E64C0
:104EB00065783A2000204D61726C696E3D5635353B
:104EC000290A0028454550524F4D3D004545505256
:104ED0004F4D2076657273696F6E206D69736D61D9
:104EE000746368200048617264636F646564204481
:104EF000656661756C742053657474696E677320A0
:104F00004C6F616465640A002823000028230000B8
:104F10006400000010270000000096430000964344
:104F2000000040400000C8410000C9420000C942E2
:104F30000000C8440000D2433A0A0020286D6D29C1
:104F40000020204D3930360020204D3931340020EA
:104F5000204D36303320002055004C0046696C61EE
:104F60006D656E74206C6F61642F756E6C6F61641B
:104F7000206C656E677468733A0A0020204D3930E2
:104F800030204B004C696E65617220416476616E21
:104F900063653A0A0020590020580053656E736F0C
:104FA000726C65737320686F6D696E6720746872C8
:104FB0006573686F6C643A0A00205A00205900201B
:104FC00058005374657070657220647269766572FA
:104FD0002063757272656E743A0A0020204D383570
:104FE00031205A005A2D50726F6265204F666673E9
:104FF00065740020440020490020204D33303420C7
:10500000500020440020490020204D3330312050F2
:10501000005049442073657474696E67733A0A00DE
:1050200020460020420020480020204D3134352009
:1050300053004D6174657269616C206865617475B7
:105040007020706172616D65746572733A0A002038
:10505000204D3432302053004175746F2042656416
:10506000204C6576656C696E673A0A00205A00200C
:10507000590020204D323036205800486F6D652091
:105080006F66667365743A0A00204500205A002056
:10509000590020580020540020530020204D323069
:1050A0003520420020453C6D61785F655F6A65721E
:1050B0006B3E0020583C6D61785F785F6A65726B6B
:1050C0003E20593C6D61785F795F6A65726B3E2066
:1050D0005A3C6D61785F7A5F6A65726B3E0041642D
:1050E00076616E6365643A20423C6D696E5F7365FC
:1050F000676D656E745F74696D655F75733E20538F
:105100003C6D696E5F66656564726174653E2054CE
:105110003C6D696E5F74726176656C5F666565642F
:10512000726174653E0020540020520020204D32F0
:105130003034205000416363656C65726174696F3F
:105140006E2028756E6974732F7332293A20503C93
:105150007072696E745F616363656C3E20523C726D
:105160006574726163745F616363656C3E20543C77
:1051700074726176656C5F616363656C3E0A0020E2
:105180004500205A0020590020204D32303120584F
:10519000004D6178696D756D20416363656C657262
:1051A0006174696F6E2028756E6974732F7332296C
:1051B0003A0A00204500205A0020590020204D3294
:1051C00030332058004D6178696D756D20666565D6
:1051D0006472617465732028756E6974732F732906
:1051E0003A0A00204500205A0020590020204D395D
:1051F0003220580053746570732070657220756E8C
:1052000069743A0A0020204D3230302044300A00C0
:1052100020204D3230302044002044697361626C9C
:1052200065640A0046696C616D656E74207365740F
:1052300074696E67733A0020204D31343920432061
:105240003B20556E69747320696E2043656C7369E9
:1052500075730A002020473231202020203B0000B7
:10526000002200250028002B002E0031003400020F
:10527000010000050108010B0100002000230026A9
:105280000029002C002F003200000100000301065D
:10529000010901022569730025696D2025697300E4
:1052A0002569682025696D202569730025696420BA
:1052B0002569682025696D20256973002569792095
:1052C000256964202569682025696D20256973009A
:1052D000656E7175657565696E6720220053544F60
:1052E000505045442E20005072696E7465722073D0
:1052F000746F707065642064756520746F206572CA
:10530000726F72732E20466978207468652065720A
:10531000726F7220616E6420757365204D39393962
:1053200020746F20726573746172742E2028546526
:105330006D70657261747572652069732072657332
:1053400065742E20536574206974206166746572DB
:105350002072657374617274696E67290A004E6FFA
:1053600020436865636B73756D2077697468206C82
:10537000696E65206E756D6265722C204C61737468
:10538000204C696E653A20004E6F20436865636B60
:1053900073756D2077697468206C696E65206E7511
:1053A0006D6265722C204C617374204C696E653A95
:1053B0002000636865636B73756D206D69736D6143
:1053C0007463682C204C617374204C696E653A20BC
:1053D000004C696E65204E756D62657220697320A0
:1053E0006E6F74204C617374204C696E65204E752D
:1053F0006D6265722B312C204C617374204C696E88
:10540000653A20004D313130004D33310053442096
:1054100072656164206572726F720A00446F6E6516
:10542000207072696E74696E672066696C650A0027
:1054300020496E76616C6964206578747275646564
:105440007220000000A0C10000A0C1000000000008
:105450000096430080964300008743486F6D6520A7
:10546000257325732573206669727374002066693D
:105470007273740A005A0059005800486F6D652015
:1054800000486F6D696E67206661696C65640048ED
:105490006F6D652058592066697273740A00486FF1
:1054A0006D65205859206669727374000A0A426556
:1054B00064204C6576656C20436F72726563746915
:1054C0006F6E204D61747269783A00202B000A4398
:1054D0006F72726563746564204265642048656913
:1054E0006768742076732E2042656420546F706F55
:1054F0006C6F67793A0A00202B000A4265642048E5
:10550000656967687420546F706F6772617068793D
:105510003A0A2020202B2D2D2D204241434B202DB7
:105520002D2B0A2020207C2020202020202020201D
:1055300020207C0A204C207C20202020282B292081
:105540002020207C20520A2045207C202020202062
:105550002020202020207C20490A2046207C202852
:105560002D29204E20282B29207C20470A2054203A
:105570007C20202020202020202020207C20480A61
:105580002020207C20202020282D29202020207C45
:1055900020540A2020207C20202020202020202091
:1055A00020207C0A2020204F2D2D2046524F4E5483
:1055B000202D2D2B0A2028302C30290A004D656122
:1055C0006E206F662073616D706C656420706F690A
:1055D0006E74733A200020643A200020623A200062
:1055E00045716E20636F656666696369656E747385
:1055F0003A20613A20003474682070726F6265202E
:10560000706F696E742C2064697374616E636520B9
:1056100066726F6D20706C616E653A2000202844C0
:10562000525952554E2900473239204175746F2026
:10563000426564204C6576656C696E67003F202882
:105640004C2C522C462C4229206F7574206F6620FA
:10565000626F756E64732E0A003F50726F62652030
:10566000706F696E74732028592920697320696DE1
:10567000706C61757369626C652028322D32292E39
:105680000A003F50726F626520706F696E747320FC
:1056900028582920697320696D706C61757369627F
:1056A0006C652028322D32292E0A003F28562965A4
:1056B00072626F7365206C6576656C206973206912
:1056C0006D706C61757369626C652028302D3429AA
:1056D0002E0A0044656C6574696F6E206661696CA2
:1056E00065642C2046696C653A200046696C65202B
:1056F00064656C657465643A00000125311D40FFE6
:10570000FFFF2924301CFF45FFFF27232F1B0A071B
:10571000FFFFFF430BFF040806FF06222B1AFFFFC3
:1057200042043803FF3650726F74656374656420F9
:1057300050696E0A0046696C616D656E7420757300
:1057400065643A200053746174733A20002C204C35
:105750006F6E67657374206A6F623A2000546F74CD
:10576000616C2074696D653A200053746174733AFA
:1057700020002C204661696C65643A20002C20468C
:10578000696E69736865643A20005072696E74735B
:105790003A200053746174733A200020573A004550
:1057A0007874727564657220436F6F6C696E672ED2
:1057B0002E2E004578747275646572204865617498
:1057C000696E672E2E2E00004A3749E911241FBE4C
:1057D000CFEFD1E2DEBFCDBF00E00CBF13E0A0E011
:1057E000B2E0EEEFF4E902E00BBF02C007900D92C9
:1057F000A03BB107D9F729E1A0EBB3E001C01D92AE
:10580000A536B207E1F71BE2C5EEDBE200E006C019
:1058100021970109802FFE010F940A3EC43ED10753
:1058200080E00807A9F70E94AC520D94D1490C946E
:1058300000002091390230913A0228173907D9F037
:1058400090933A02809339021092560A1092570AA6
:105850001092580A1092590A8E53964321F41092CE
:10586000550A1092540A82E08093380281E08093B6
:10587000530A1092520A08950CB405FC0DC01EBCC8
:1058800000000DB407FEFDCF9EB51EBC00000DB498
:1058900007FEFDCF8EB508951EBC00000DB407FEB7
:1058A000FDCF8EB51EBC00000DB407FEFDCF9EB52A
:1058B0000895E82F880FFF0BE151F34FE491E75073
:1058C000EC3010F5F0E08827ED51F64B8E4F0D943B
:1058D0000A3E8091B100887F84608093B100089572
:1058E00080919100887F84608093910008958091D9
:1058F000A100887F84608093A10008958091210198
:10590000887F8460809321010895CF92DF92EF9287
:10591000FF920F931F93FC018EEA97E4A1EEBDE383
:1059200080839183A283B3831682108617821186A7
:1059300012861386148616861586178A108E118E87
:10594000128E138E148E158E168E178E10A211A223
:1059500012A213A214A215A216A217A210A611A693
:1059600012A613A614A615A616A617A610AA11AA63
:1059700012AA13AA14AA15AA16AA17AA10AE11AE33
:1059800012AE13AE14AE15AE16AEDF01DF961D9249
:105990001D921D921C92139714961D921D921D929A
:1059A0001C92139714961D921D921D921C92139790
:1059B00014961D921D921D921C92139714961D927F
:1059C0001D921D921C92139714961D921D921D926A
:1059D0001C92139714961D921D921D921C92139760
:1059E00014961D921D921D921C92139714961D924F
:1059F0001D921D921C92139714961D921D921D923A
:105A00001C921397149680E8C82E84E0D82E85E067
:105A1000E82EF12CCD92DD92ED92FC921397149624
:105A20001D921D921D921C92139714961D921D9209
:105A30001D921C92139714961D921D921D921C92FA
:105A4000139714961D921D921D921C9213971496F3
:105A50001D921D921D921C921397149611961C92E2
:105A60001E9212961C921482708B6787328B218B48
:105A7000148B038B568B458B1F910F91FF90EF90EA
:105A8000DF90CF9008958EBD00000DB407FEFDCFCE
:105A90008EB508958F929F92AF92BF92CF92DF9270
:105AA000EF92FF92CF93FC01C080D180E280F3801F
:105AB00020E030E0A901C701B6010F94324287FF10
:105AC000A2C0C701B601905820E030E04AE754E494
:105AD0000F94974220E030E040EA50E40F940947E9
