:100000000C94452C0D947B390D9450390D94253961
:100010000D94FA380D94CF380D94A4380D94793896
:100020000D944E380C94762C0C94762C0C94762CE3
:100030000C94762C0D94FD390C94762C0C94762C23
:100040000C94762C0C947E9D0C94762C0C94762C2F
:100050000C94762C0C94762C0C94389B0D944F4079
:100060000C94762C0D9429360D94C9360C94762C6C
:100070000C94762C0C94762C0C94762C0C94762C78
:100080000C94762C0C94762C0C94762C0C94762C68
:100090000C94762C0C94762C0C94762C0C94762C58
:1000A0000C94762C0C94762C0C94762C0C94762C48
:1000B0000C94762C0C94762C0C94762C0C94762C38
:1000C0000C94762C0C94762C0C94762C0C94762C28
:1000D0000C94762C0C94762C0C94762C0C94762C18
:1000E0000C94762C084AD73B3BCE016E84BCBFFDF6
:1000F000C12F3D6C74319ABD56833DDA3D00C77FF8
:1001000011BED9E4BB4C3E916BAAAABE0000008090
:100110003F05A84CCDB2D44EB93836A9020C50B91F
:10012000918688083CA6AAAA2ABE000000803F004B
:100130000D94F53A0D9497360D94AE360D94241621
:100140000D94A2360D947D3B0D9456160D94693B8B
:100150000D9498160D94A6360D948A160D94921649
:100160000D9456360D94463B0D9484160D943C3BED
:100170000D94D1150D94A0160D94FB150D94203BF4
:100180000D9473160D94AA360D94FA3A0D946F16C9
:100190000D94873B0D949E360D9477160D94A616FC
:1001A0000D948E160D94FC3F0D94323B0D948136C8
:1001B0000D94AA160D94A5160D94183B0D940E3BA4
:1001C0000D9458160D94043B0D94FA150D94553B5F
:1001D0000D94ED3A0D948F360D945F3B0D94283BB2
:1001E0000D94733B0D94B4360D946B160D946516F7
:1001F0000D9480160D949C160D947A160D94FE1590
:100200004E414E494E495459494E46CDCCCC3D0AFB
:10021000D7233C17B7D13877CC2B329595E6241FDE
:10022000B14F0A000020410000C84200401C462097
:10023000BCBE4CCA1B0E5AAEC59D7454415A2036E2
:1002400020526574726F2072656164792E0050725D
:10025000696E74696E672E2E2E005072696E74205E
:10026000706175736564004D313235004D32340074
:100270005072696E742061626F72746564005072AE
:10028000696E742066726F6D2053440053746F70F2
:10029000207072696E7400526573756D652070729E
:1002A000696E74004E6F2053442063617264005085
:1002B00061757365207072696E740041626F757448
:1002C000205072696E746572004368616E676520C4
:1002D00066696C616D656E74004368616E67652068
:1002E00066696C616D656E74004D36303020423049
:1002F00000436F6E66696775726174696F6E005452
:10030000656D7065726174757265004D6F76656DAF
:10031000656E740054756E6500496E666F20736378
:100320007265656E004D6F76652061786973004473
:10033000697361626C6520737465707065727300B7
:100340004D3834004175746F20686F6D6500473219
:1003500038004D61696E004D3530320A4D35303010
:10036000004C6F61642073657474696E677300522A
:100370006573746F7265206661696C736166650090
:1003800053746F72652073657474696E677300418E
:100390006476616E6365642053657474696E677317
:1003A000004D61696E005072696E746572205374FD
:1003B000617473004669726D77617265205665726B
:1003C00073696F6E004D61696E000A003B20454500
:1003D00050524F4D20496E6465783A200055706444
:1003E0006174696E67207A6F666673657420696EE2
:1003F00020454550524F4D3A20000E000E000E0091
:100400000E000E000E000E000E007FC03F801F0089
:100410000E00040004000E001F003F807FC00E008D
:100420000E000E000E000E000E000E000E0003F86F
:10043000000FFE001E0F0038070038038070038095
:10044000700FE07007C0700380700100700000380A
:1004500000003807001E0F000FFE0003F80000FE2A
:100460000003FF800783C00E01C00E00E01C00E007
:100470007F00E03E00E01C00E00800E00000E0003B
:1004800001C00E01C00F078007FF0001FC00FFFF45
:10049000FF7F80FFC0FFC0FFC07F807F80FFC0FF65
:1004A000C0FFC03F001E000C0050726F6265205AF2
:1004B000204F66667365740050726F6265205A2023
:1004C0004F666673657400466C6F7700466C6F7795
:1004D0000046616E2073706565640046616E20732E
:1004E000706565640042656400426564004E6F7A21
:1004F0007A6C65004E6F7A7A6C650053706565643E
:10050000005370656564004D61696E004D6F7665DE
:100510002058004D6F76652059004D6F7665205A42
:1005200000457874727564657220004D6F766520A1
:10053000302E316D6D004D6F766520316D6D004D43
:100540006F76652031306D6D004D6F766520617876
:10055000697300457874727564657220004D6F761A
:1005600065205A004D6F76652059004D6F766520E5
:100570005800457874727564657220004175746F17
:1005800020686F6D6500473238004D6F7665205AE0
:10059000004D6F76652059004D6F76652058004DEF
:1005A0006F76656D656E7400436F6F6C646F776E08
:1005B0000046616E2073706565640046616E20734D
:1005C000706565640042656400426564004E6F7A40
:1005D0007A6C65004E6F7A7A6C65004D61696E00C9
:1005E0005654726176206D696E00565472617620A1
:1005F0006D696E00566D696E00566D696E00566DC0
:100600006178204500566D6178204500566D61780F
:10061000205A00566D6178205A00566D6178205935
:1006200000566D6178205900566D6178205800564B
:100630006D61782058004D6F74696F6E00416D6177
:1006400078204500416D6178204500416D6178203A
:100650005A00416D6178205A00416D61782059003F
:10066000416D6178205900416D6178205800416DDD
:100670006178205800412D74726176656C00412DBF
:1006800074726176656C00412D7265747261637479
:1006900000412D7265747261637400416363656C1F
:1006A00000416363656C004D6F74696F6E00566541
:1006B0002D6A65726B0056652D6A65726B00567AFD
:1006C0002D6A65726B00567A2D6A65726B005679D9
:1006D0002D6A65726B0056792D6A65726B005678CB
:1006E0002D6A65726B0056782D6A65726B004D6FCE
:1006F00074696F6E004573746570732F6D6D00457E
:1007000073746570732F6D6D005A73746570732FF9
:100710006D6D005A73746570732F6D6D005973742D
:100720006570732F6D6D005973746570732F6D6DE7
:10073000005873746570732F6D6D00587374657015
:10074000732F6D6D004D6F74696F6E004F6666009C
:100750004F6E2000456E6473746F702061626F721B
:10076000740053746570732F6D6D004A65726B0071
:10077000416363656C65726174696F6E0056656C88
:100780006F636974790050726F6265205A204F66FA
:100790006673657400416476616E636564205365B9
:1007A0007474696E67730043616E6E6F7420656E5A
:1007B000746572207375626469723A2000022E2E8D
:1007C000004D61696E00004578747275646564203F
:1007D000746F74616C3A2000256C642E25696D007D
:1007E000004C6F6E67657374206A6F622074696D68
:1007F000653A200000546F74616C207072696E74E9
:100800002074696D653A2000436F6D706C65746586
:10081000643A20005072696E7420436F756E743AAA
:1008200020004D37303220542564004D36303020C2
:10083000423020542564004D373032203B2564007F
:100840004D37303120542564004368616E67652060
:1008500066696C616D656E7400507265686561747F
:1008600020437573746F6D00507265686561742004
:10087000437573746F6D00507265686561742041D3
:100880004253005072656865617420504C41004DC0
:1008900061696E005052494E5420504155534544B1
:1008A00000554E4C4F41442046494C414D454E5415
:1008B000004C4F41442046494C414D454E54005058
:1008C00075726765206D6F726500456E642066699C
:1008D0006C616D656E74206368616E6765000020F1
:1008E000204E6F7A7A6C653A20006368616E6765A6
:1008F000006F66207468652066696C616D656E7452
:10090000005761697420666F72207374617274009D
:1009100020204E6F7A7A6C653A2000200066696C60
:10092000616D656E7420756E6C6F616400576169EE
:100930007420666F720020204E6F7A7A6C653A20C0
:10094000002000506C6561736520776169742E2EFC
:100950002E0048656174696E67206E6F7A7A6C65E7
:100960000020204E6F7A7A6C653A2000200068657E
:100970006174206E6F7A7A6C652E005072657373A5
:1009800020627574746F6E20746F0020204E6F7A31
:100990007A6C653A2000746F20636F6E74696E75AF
:1009A000652E2E2E00616E64207072657373206256
:1009B0007574746F6E00496E736572742066696C2D
:1009C000616D656E740020204E6F7A7A6C653A20F6
:1009D00000200066696C616D656E74206C6F6164E7
:1009E000005761697420666F720020204E6F7A7A1A
:1009F0006C653A2000200066696C616D656E74203C
:100A00007075726765005761697420666F72005077
:100A10006C6561736520776169742E0000436172B3
:100A2000642072656D6F766564004361726420694D
:100A30006E73657274656400000021002400270055
:100A40002A002D00300033000101000004010701DD
:100A50000A01050505050705080808080202020243
:100A60000A0A08080404040401010101010101014A
:100A70000303030303030303040707070C0C0C0C15
:100A80000C0C0C0C020202020606060606060606FE
:100A90000B0B0B0B0B0B0B0B1FFFFFFFFFFFFF6085
:100AA0000000000001FF400000000000FF80000087
:100AB0000000007F83CF00000C303F87FF80000CD8
:100AC000301F867980000C000F8C30C7838C30E794
:100AD0008C30CFC7CC31F38C30DCECEC33B98C30BC
:100AE000D86C6C33198C30D06C0C33198C30D86CBA
:100AF0000C33198C30DC6C0E3B198C30CF7C079F8B
:100B0000198C30C77C038F19400000000000026080
:100B10000000000000061FFFFFFFFFFFF82020502D
:100B20006C616E6E65724275666665724279746557
:100B3000733A20002046726565204D656D6F7279AD
:100B40003A2000436F6D70696C65643A204A616EAB
:100B500020203520323031390A00207C2041757444
:100B6000686F723A2028416C657068204F626A6530
:100B700063747320496E632E2C204C756C7A426F1F
:100B80007420476974205265706F7369746F72794D
:100B9000290A004A616E202035203230313930393F
:100BA0003A33363A353500204C6173742055706401
:100BB000617465643A2000312E312E390A004D618E
:100BC000726C696E0020536F667477617265205293
:100BD000657365740A00205761746368646F6720E9
:100BE00052657365740A002042726F776E206F75CC
:100BF000742052657365740A002045787465726EBE
:100C0000616C2052657365740A00506F7765725588
:100C1000700A0073746172740A006175746F2569DB
:100C20002E67006572726F722077726974696E67E1
:100C300020746F2066696C650A00456E6473746F7A
:100C40007073202563202563202563202563002001
:100C50005A3A0020593A0020583A00656E6473747D
:100C60006F7073206869743A2000446F6E6520735A
:100C70006176696E672066696C652E0A004D3239AF
:100C8000004739310A4730205A3135204636303056
:100C90000A4739300A473020583137302059323925
:100CA000302046333030300A4D31313720507269B0
:100CB0006E742061626F727465642E004D32340070
:100CC0004D323320257300556E6B6E6F776E206347
:100CD0006F6D6D616E643A202200486F74656E64BA
:100CE00020746F6F20636F6C640A0000000A0B02AF
:100CF000090C0D0E080703040100000000000000AD
:100D000000000000000000000000000000000000E3
:100D100000000000000000121110000000000000A0
:100D200000000000000000000000000000000000C3
:100D30000050726F62696E67206661696C65640A53
:100D40000050726F62696E67206661696C6564004D
:100D5000205A3A200020593A200042656420583A2F
:100D600020000102102020080810204010204080A0
:100D7000020102010804020101020408102040805F
:100D800080402010080402018004020180402010ED
:100D90000804020108040201010204081020408036
:100DA00001020408102040805344206361726420D3
:100DB0006F6B0A006F70656E526F6F7420666169A9
:100DC0006C65640A00766F6C756D652E696E69746A
:100DD000206661696C65640A00534420696E697419
:100DE000206661696C0A0057726974696E672074C5
:100DF0006F2066696C653A20006F70656E206661D1
:100E0000696C65642C2046696C653A20006F7065DA
:100E10006E206661696C65642C2046696C653A20B9
:100E20000046696C652073656C65637465640A00CF
:100E30002053697A653A200046696C65206F7065B9
:100E40006E65643A20002066696C653A2000646F24
:100E5000696E67006672657368004E6F77200045A3
:100E60004E4420535542524F5554494E450A002294
:100E700020706F73002220706172656E743A2200D8
:100E8000535542524F5554494E452043414C4C20F6
:100E90007461726765743A22004B494C4C45442E8C
:100EA0002000747279696E6720746F2063616C6CC6
:100EB000207375622D67636F64652066696C657366
:100EC000207769746820746F6F206D616E79206C73
:100ED0006576656C732E204D4158206C6576656C87
:100EE0002069733A004572726F723A006F70656ED6
:100EF000206661696C65642C2046696C653A200047
:100F000043616E6E6F74206F70656E2073756264DE
:100F1000697220006563686F3A0045312054484586
:100F2000524D414C2052554E415741590042454483
:100F300020544845524D414C2052554E415741593D
:100F400000546865726D616C2052756E61776179CD
:100F5000001000C90210012C01400122017001188B
:100F600001B0010E01F00104015002FA00B002F0DC
:100F7000003003E600D003DC009004D2007005C806
:100F800000A006BE000008B400B009AA00D00BA063
:100F900000600E960060118C000015820020197808
:100FA00000C01D6E00A0226400B0275A00902C5093
:100FB0000000314600E0343C0010383200903A28FE
:100FC00000603C1E00A03D1400803E0A00203F004F
:100FD00000453400453300453200453100453000BE
:100FE0005A32005932005832005A00590058002530
:100FF000346400253364000000000100000001009B
:10100000008000555555000000400033333300AADE
:10101000AA2A004992240000002000C7711C0099F0
:10102000991900D1451700555515003BB1130024FF
:1010300049120011111100000010000F0F0F00E302
:10104000380E0043790D00CCCC0C00C3300C00E806
:10105000A20B0064210B00AAAA0A00703D0A009DA1
:10106000D80900427B090092240900DCD3080088DB
:101070008808001042080000000800F0C10700873F
:1010800087070075500700711C07003EEB0600A1A2
:10109000BC06006990060066660600703E060061A8
:1010A00018060017F4050074D105005BB00500B206
:1010B000900500627205005555050078390500B8A5
:1010C0001E0500050505004EEC040087D40400A1B0
:1010D000BD040090A7040049920400C17D0400EE05
:1010E000690400C7560400444404005C320400084C
:1010F00021040041100400000004003FF00300F848
:10110000E0030026D20300C3C30300CCB503003ABA
:10111000A803000A9B0300388E0300C08103009FD0
:10112000750300D0690300505E03001D53030034B3
:10113000480300913D0300333303001629030038B0
:101140001F030097150300300C0300030303000B7B
:10115000FA020049F10200BAE802005CE002002D48
:10116000D802002DD0020059C80200B0C0020031E0
:10117000B90200DAB10200AAAA0200A0A30200BCD0
:101180009C0200FA9502005C8F0200DF8802008258
:10119000820200457C02002776020027700200438D
:1011A0006A02007C640200D05E02003F590200C85F
:1011B00053020020746F6F206C6F6E672065787427
:1011C000727573696F6E2070726576656E74656492
:1011D0000A0020636F6C6420657874727573696FA0
:1011E0006E2070726576656E7465640A00FFFDFCA2
:1011F000FAF8F6F4F2F0EEECEAE9E7E5E3E1E0DE36
:10120000DCDAD9D7D5D4D2D0CFCDCBCAC8C7C5C3E5
:10121000C2C0BFBDBCBAB9B7B6B4B3B2B0AFADAC63
:10122000AAA9A8A6A5A4A2A1A09E9D9C9A999897B8
:1012300095949392908F8E8D8B8A898887868483EC
:101240008281807F7E7D7B7A797877767574737200
:1012500071706F6E6D6C6B6A6968676665646362F6
:1012600061605F5E5D5C5B5A5958585756555453E0
:10127000525150504F4E4D4C4B4A4A4948474646B2
:10128000454443424241403F3E3E3D3C3B3B3A3970
:10129000383837363535343332323130302F2E2E20
:1012A0002D2C2B2B2A2929282727262525242323C3
:1012B00022212120201F1E1E1D1C1C1B1B1A191958
:1012C0001818171616151514131312121111100FE2
:1012D0000F0E0E0D0D0C0C0B0A0A09090808070762
:1012E0000606050504040303020201000024F4D4E9
:1012F0003050C38E20C2A24017828B7011127A9197
:101300000D816CD90AA861E108C75866076151438D
:10131000061E4B5D05C145A7041A411104093D98FD
:1013200003713931034036DB0265339102D4305406
:1013300002802E1D02632CEE01752AC501B028A083
:1013400001102781018F2564012B244B01E02234F9
:1013500001AC211F018D200D01801FFC00841EEDBA
:1013600000971DDF00B81CD200E61BC600201BBC86
:1013700000641AB200B219A8000A19A0006A1899EC
:1013800000D117910040178B00B516840031167EEE
:1013900000B31579003A157300C7146F0058146A2A
:1013A00000EE1366008813630025135E00C7125B0E
:1013B000006C12570015125400C111510070114FEA
:1013C0000021114B00D61049008D104700461044F3
:1013D0000002104200C00F4000800F3E00420F3C50
:1013E00000060F3B00CB0E3800930E37005C0E3525
:1013F00000270E3400F30D3200C10D3100900D3086
:1014000000600D2E00320D2D00050D2C00D90C2B87
:1014100000AE0C2900850C29005C0C2700350C2738
:10142000000E0C2600E80B2400C40B2400A00B23A4
:10143000007D0B23005A0B2100390B2100180B20D3
:1014400000F80A1F00D90A1E00BB0A1E009D0A1DD3
:1014500000800A1D00630A1C00470A1B002C0A1B9F
:1014600000110A1A00F7091A00DD091900C4091948
:1014700000AB091900920917007B091800630917CE
:10148000004C09160036091600200916000A091535
:1014900000F5081500E0081400CC081400B8081482
:1014A00000A4081400900813007D0812006B0813B4
:1014B00000580812004608120034081100230811D1
:1014C000001208110001081100F0071000E00710D9
:1014D00000D0071000C0071000B0070F00A10710D0
:1014E0000091070E0083070F0074070F0065070EB9
:1014F0000057070E0049070E003B070D002E070E90
:101500000020070D0013070D0006070D00F9060C5B
:1015100000ED060D00E0060C00D4060C00C8060C19
:1015200000BC060C00B0060C00A4060B0099060CCB
:10153000008D060B0082060B0077060B006C060B75
:101540000061060A0057060B004C060A0042060A14
:101550000038060A002E060A0024060A001A060AA7
:10156000001006090007060A00FD050900F4050938
:1015700000EB050900E2050900D9050900D00509BD
:1015800000C7050900BE050900B5050800AD05083E
:1015900000A50509009C050800940508008C0508B5
:1015A00000840508007C050800740508006C050728
:1015B00000650508005D050700560508004E050793
:1015C00000470507004005080038050700310507FA
:1015D000002A050700230507001C0506001605075D
:1015E000000F0507000805060002050700FB0406BA
:1015F00000F5040700EE040600E8040600E2040714
:1016000000DB040600D5040600CF040600C904066A
:1016100000C3040600BD040600B7040600B10405BB
:1016200000AC040600A6040600A00405009B040606
:101630000095040500900406008A04050085040551
:1016400000800406007A0405007504050070040596
:10165000006B04050066040500610405005C0405D8
:101660000057040500520405004D04050048040518
:1016700000430405003E0404003A04050035040557
:1016800000300404002C0405002704040023040592
:10169000001E0404001A04040016040500110404CA
:1016A000000D0404000904050004040400000404FF
:1016B00000FC030400F8030400F4030400F0030436
:1016C00000EC030400E8030400E4030400E0030466
:1016D00000DC030400D8030400D4030400D0030496
:1016E00000CC030400C8030300C503030024F40472
:1016F000D9201BC40C5C0E9804C4095F02650771F5
:1017000001F405F900FB04B30048048700C1036934
:10171000005803550003034500BE023A008402311D
:101720000053022A002902250004022000E4011CC3
:1017300000C8011900AF01170098011400840113BB
:1017400000710110006101100051010E0043010DF4
:101750000036010B002B010B0020010B00150109C5
:10176000000C01090003010800FB000800F3000859
:1017700000EB000700E4000600DE000600D80006CB
:1017800000D2000600CC000500C7000500C200051D
:1017900000BD000400B9000400B5000400B100045D
:1017A00000AD000400A9000400A5000300A200038E
:1017B000009F0004009B00030098000300950002B6
:1017C0000093000300900003008D0002008B0003D3
:1017D00000880002008600020084000300810002ED
:1017E000007F0002007D0002007B00020079000201
:1017F0000077000100760002007400020072000110
:1018000000710002006F0002006D0001006C000218
:10181000006A000100690002006700010066000123
:101820000065000100640002006200010061000127
:1018300000600001005F0002005D0001005C00012B
:10184000005B0001005A000100590001005800012E
:10185000005700010056000100550001005400012E
:10186000005300000053000100520001005100012C
:1018700000500001004F0001004E0000004E00012A
:10188000004D0001004C0001004B0000004B000126
:10189000004A000100490001004800000048000122
:1018A000004700010046000000460001004500001E
:1018B0000045000100440001004300000043000116
:1018C0000042000000420001004100000041000110
:1018D00000400001003F0000003F0001003E00000A
:1018E000003E0001003D0000003D0001003C000002
:1018F000003C0000003C0001003B0000003B0001F8
:10190000003A0000003A00010039000000390001EF
:1019100000380000003800000038000100370000E7
:1019200000370001003600000036000000360001DC
:1019300000350000003500000035000100340000D3
:1019400000340000003400010033000000330000C8
:1019500000330001003200000032000000320001BC
:1019600000310000003100000031000100300000B3
:101970000030000000300001002F0000002F0000A8
:10198000002F0000002F0001002E0000002E00009C
:10199000002E0001002D0000002D0000002D000091
:1019A000002D0001002C0000002C0000002C000085
:1019B000002C0001002B0000002B0000002B000079
:1019C000002B0001002A0000002A0000002A00006D
:1019D000002A000100290000002900000029000061
:1019E0000029000000290001002800000028000054
:1019F0000028000000280000002800010027000047
:101A00000027000000270000002700000027000139
:101A1000002600000026000000260000002600002E
:101A20000026000100250000002500000025000020
:101A30000025000000250000002500010024000012
:101A40000024000000240000002400000024000105
:101A500000230000002300000023000000230000FA
:101A600000230000002300000023000100220000EA
:101A700000220000002200000022000000220000DE
:101A800000220001002100000021000000210000D0
:101A900000210000002100000021000000210001C1
:101AA00000200000002000000020000000200000B6
:101AB00000200000002000000020000000200001A5
:101AC000001F0000001F0000001F0000001F00009A
:101AD000001F0000001F0000001F0001001E00008A
:101AE000001E0000001E0000001E000000232C004D
:101AF00000B8220000561800003A0F0000B8080095
:101B000000B1040000710200003E0100004B64209F
:101B10000023646566696E652044454641554C5412
:101B20005F004B69200023646566696E652044454B
:101B30004641554C545F004B702000236465666934
:101B40006E652044454641554C545F005049442041
:101B50004175746F74756E652066696E697368652A
:101B600064212050757420746865206C6173742042
:101B70004B702C204B6920616E64204B6420636F96
:101B80006E7374616E74732066726F6D2062656C23
:101B90006F7720696E746F20436F6E666967757228
:101BA0006174696F6E2E680A005049442041757453
:101BB0006F74756E65206661696C65642120746957
:101BC0006D656F75740A00453120544845524D418A
:101BD0004C2052554E4157415900424544205448EB
:101BE00045524D414C2052554E4157415900546881
:101BF00065726D616C2052756E6177617900453157
:101C00002048656174696E67206661696C6564006F
:101C10004265642068656174696E67206661696CFD
:101C200065640048656174696E67206661696C650A
:101C30006400504944204175746F74756E65206668
:101C400061696C6564212054656D7065726174759D
:101C5000726520746F6F20686967680A00204B64A2
:101C60003A2000204B693A2000204B703A20000AAD
:101C700020436C617373696320504944200A00203B
:101C800054753A2000204B753A2000206D61783A57
:101C90002000206D696E3A200020643A2000206206
:101CA0006961733A2000504944204175746F74751E
:101CB0006E652073746172740A0050494420417546
:101CC000746F74756E65206661696C65642120426D
:101CD0006164206578747275646572206E756D62DA
:101CE00065720A006265640A002C2073797374655A
:101CF0006D2073746F707065642120486561746530
:101D0000725F49443A2000426564206865617469E5
:101D10006E67206661696C65640048656174696E10
:101D200067206661696C65640045312048656174AF
:101D3000696E67206661696C6564004865617469F5
:101D40006E67206661696C6564004B494C4C454484
:101D50002E20001000AD0330016A0150022B0170EB
:101D6000030A019004F500B005E500D006D800F0A4
:101D700007CE001009C500300ABE00500BB7007036
:101D80000CB100900DAB00B00EA600D00FA200F079
:101D9000109D00101299003013950050149200709D
:101DA000158E0090168B00B0178700D0188400F0B5
:101DB000198100101B7E00301C7B00501D790070C3
:101DC0001E7600901F7300B0207000D0216E00F0CE
:101DD000226B0010246900302566005026630070D5
:101DE00027610090285E00B0295C00D02A5900F0DD
:101DF0002B5600102D5400302E5100502F4E0070E5
:101E0000304B0090314800B0324500D0334200F0F2
:101E1000343E0010363B0030373700503833007006
:101E2000392E00903A2900B03B2300D03C1B00F033
:101E30003D1100103F0100F03F0000453120457288
:101E4000723A204D415854454D50004572723A2027
:101E50004D415854454D5020424544004D41585441
:101E6000454D50207472696767657265640045313D
:101E7000204572723A204D494E54454D50004572EE
:101E8000723A204D494E54454D5020424544004D34
:101E9000494E54454D502074726967676572656498
:101EA000004D383420582059205A204500202F005A
:101EB0002042403A0020403A00ED0FEB0FE90FE6D8
:101EC0000FE30FE00FDD0FDA0FD70FD40FD10F2084
:101ED0006472697665722063757272656E743A20F9
:101EE00000747275650066616C7365002074656DC1
:101EF0007065726174757265207072657761726E5B
:101F0000207472696767657265643A200020707298
:101F1000657761726E20666C616720636C656172C3
:101F200065640A0020686F6D696E672073656E7363
:101F3000697469766974793A20007472756500660F
:101F4000616C736500747275650066616C73650021
:101F5000747275650066616C736500313D2E3138B1
:101F600000303D2E333235002F3331002F33310016
:101F70002F333100747275650066616C73650020E3
:101F80003D20307800447269766572207265676919
:101F900073746572733A006F7409006F7470770917
:101FA000007332676109007332676209006F6C6108
:101FB00009006F6C620900737473740900667361C1
:101FC0006374697665090073675F726573756C7415
:101FD00009007374616C6C67756172640900445226
:101FE00056535441545553005374616C6C6775617A
:101FF00072642074687273002D73746172740900C6
:10200000687973746572657369730A2D656E640906
:1020100000626C616E6B2074696D65006F6666208E
:1020200074696D6509004F54207072657761726E36
:10203000206861730A6265656E20747269676765FE
:10204000726564004F54207072657761726E005B38
:102050006D6D2F735D090070776D0A74687265731A
:10206000686F6C640900747374657009006D737433
:102070006570730900737465616C746843686F7090
:10208000007673656E7365090050574D2073636168
:102090006C65090043532061637475616C090048E5
:1020A0006F6C642063757272656E740052756E2079
:1020B00063757272656E74004D415820637572725B
:1020C000656E740000060900FE06018902FE20FF0D
:1020D000FE07FE06FE0000000600070106060602D7
:1020E00000808080800080030303060103A0A0A07D
:1020F0000507070600FF5050F850F8505005090931
:102100000600FE2070A8A07028A870200608080607
:1021100000FF40A84810204854080507070600FFA4
:1021200060909060989068010303060203808080AD
:102130000207070602FF4080808080804002070778
:102140000602FF8040404040408005050506000033
:102150008850F850880505050600002020F820204A
:102160000204040602FEC040408005010106000290
:10217000F8020202060200C0C004060606010010B2
:102180001020408080040606060100609090909028
:102190006003060606010040C0404040E004060619
:1021A0000601006090102040F0040606060100F0D1
:1021B00020601010E005060606000010305090F870
:1021C00010040606060100F080E01010E004060688
:1021D0000601006080E0909060040606060100F0B1
:1021E00010102040400406060601006090609090A8
:1021F00060040606060100609090701060020505FC
:10220000060200C0C000C0C00207070602FEC0C030
:1022100000C0404080050505060000186080601879
:10222000050303060001F800F8050505060000C0D7
:10223000300830C0040707060100609010604000BD
:10224000400506060600007090A8B08070050606DE
:10225000060000205088F88888050606060000F071
:1022600088F08888F004060606010060908080905F
:1022700060040606060100E090909090E0040606D7
:10228000060100F080E08080F0040606060100F000
:1022900080E0808080040606060100609080B09097
:1022A000600406060601009090F0909090030606E8
:1022B000060100E040404040E00506060600003808
:1022C000101010906004060606010090A0C0A090B7
:1022D000900406060601008080808080F0050606D6
:1022E00006000088D8A8A888880406060601009081
:1022F000D0B0909090050606060000708888888807
:1023000070040606060100E09090E0808004070754
:102310000601FF609090D0B0601004060606010030
:10232000E09090E090900406060601006090402046
:102330009060050606060000F820202020200406F4
:102340000606010090909090906004060606010039
:10235000909090F060600506060600008888A8A8A6
:10236000D8880506060600008850202050880506FB
:10237000060600008888502020200406060601007A
:10238000F010204080F0030606060100E080808007
:1023900080E004060606010080804020101003063D
:1023A00006060100E020202020E0050303060003CC
:1023B0002050880501010600FEF802020206020410
:1023C0008040040404060100709090700406060624
:1023D00001008080E09090E0040404060100708019
:1023E00080700406060601001010709090700404BE
:1023F0000406010060B0C07004060606010020500B
:1024000040E040400406060601FE609090701060B7
:102410000406060601008080E09090900306060600
:1024200001004000C04040E00308080601FE200013
:1024300060202020A0400406060601008080A0C085
:10244000A090030606060100C040404040E005049D
:1024500004060000D0A8A888040404060100E09047
:102460009090040404060100609090600406060643
:1024700001FEE09090E080800406060601FE709068
:1024800090701010040404060100A0D080800404A1
:102490000406010070C030E004060606010040405A
:1024A000E040502004040406010090909070040461
:1024B000040601009090606005040406000088A8EE
:1024C000A85004040406010090606090040606060B
:1024D00001FE909090709060040404060100F020CA
:1024E00040F00307070601002040408040402001E3
:1024F00007070602FF808080808080800307070630
:102500000100804040204040800402020601035048
:10251000A0FFFFFFFFFFFFFFFFFFFFFFFFFFFFFF2A
:10252000FFFFFFFFFFFFFFFFFFFFFFFFFFFFFFFFBB
:10253000FFFF0000000600070106060602008000FB
:10254000808080800406060601FF2070A0A0702015
:102550000507070600FF304840F04040F805050534
:10256000060000A8508850A80506060600008850FE
:10257000F820F8200107070602FF80808000808095
:10258000800407070601FF708060906010E003017F
:1025900001060105A0060707060000788494A494AC
:1025A000847803050506010160A06000E0050505CB
:1025B0000600002850A05028040303060100F01074
:1025C00010040101060102F00607070600007884E6
:1025D000B4A4A48478040101060105F004030306F1
:1025E00001026090600507070600FF2020F8202008
:1025F00000F803050506010140A02040E0030505A1
:10260000060101C0204020C00202020602044080F0
:102610000405050601FF9090B0D08005060606006F
:102620000078E8E868282801010106020280020219
:10263000020602FE408003050506010140C040403D
:10264000E003050506010140A04000E00505050680
:102650000000A0502850A00508080600FF40C04018
:1026600050703078100508080600FF40C0405068E0
:102670000810380508080600FFC0204030F0307808
:102680001004070706010020002060809060050705
:1026900007060000402020507088880507070600C4
:1026A0000010202050708888050707060000205081
:1026B00020507088880507070600002850205070B9
:1026C000888805070706000050002050708888059C
:1026D000070706000020502050708888050606066F
:1026E000000078A0F0A0A0B80408080601FE6090E1
:1026F0008080906020400407070601004020F080A1
:10270000E080F00407070601002040F080E080F040
:102710000407070601002050F080E080F00407075E
:102720000601005000F080E080F00307070601007A
:102730008040E0404040E00307070601002040E001
:10274000404040E003070706010040A0E040404051
:10275000E0030707060100A000E0404040E0050656
:10276000060600007048E8484870040707060100A4
:1027700050A090D0B0909004070706010040206060
:1027800090909060040707060100204060909090B0
:1027900060040707060100205060909090600407D5
:1027A0000706010050A060909090600407070601A2
:1027B000005000609090906005050506000088506C
:1027C0002050880408080601FF1070B0B0D0D0E097
:1027D0008004070706010040209090909060040755
:1027E00007060100204090909090600407070601C2
:1027F0000020509090909060040707060100500060
:1028000090909090600507070600001020885020E7
:10281000202004060606010080E09090E080040677
:10282000060601006090A0A090A004070706010022
:1028300040200070909070040707060100204000BF
:10284000709090700407070601002050007090906F
:102850007004070706010050A000709090700406F5
:1028600006060100500070909070040707060100F2
:102870002050207090907005040406000070A8B0ED
:10288000780406060601FE70808070204004070769
:1028900006010040200060B0C07004070706010078
:1028A00020400060B0C070040707060100205000FF
:1028B00060B0C070040606060100500060B0C07031
:1028C000030707060100804000C04040E0030707FF
:1028D000060100204000C04040E003070706010059
:1028E00040A000C04040E0030606060100A000C072
:1028F0004040E004070706010030601070909060CF
:1029000004070706010050A000E09090900407071C
:102910000601004020006090906004070706010057
:1029200020400060909060040707060100205000DE
:102930006090906004070706010050A0006090902E
:1029400060040606060100500060909060050505D1
:102950000600002000F8002004040406010070B006
:10296000D0E004070706010040200090909070041A
:1029700007070601002040009090907004070706AA
:10298000010020500090909070040606060100504F
:1029900000909090700409090601FE20400090907C
:1029A000907090600408080601FE8080E09090E03E
:1029B00080800408080601FE50009090907090609E
:1029C00000060900FE000000000001090008FE00EA
:1029D0000005080806000040F0C8888898781005AF
:1029E0000808060000C0F88888888888F80505056A
:1029F0000600012030F8302005080806000020708D
:102A0000F820202020E00509090600FF2070A8A872
:102A1000B8888870200509090600FFE080C0B0A8CA
:102A2000283028280509090600FFF8A88888888822
:102A300088A8F8050A0A0600FE205050505088A8C1
:102A4000A8887003030306000340A04000060900A5
:102A5000FE0701920321207FFF07FF07FF00000010
:102A60000600000107070602008080808080008049
:102A7000030202060105A0A005070706000050504A
:102A8000F850F850500507070600002078A070287D
:102A9000F020050707060000C0C810204098180560
:102AA00007070600006090A040A890680203030694
:102AB0000104C04080030707060100204080808099
:102AC00040200307070601008040202020408005A9
:102AD000050506000120A870A820050505060001CF
:102AE0002020F820200203030602FFC040800501D9
:102AF00001060003F8020202060200C0C005050537
:102B000006000108102040800507070600007088B5
:102B1000888888887003070706010040C04040404D
:102B200040E0050707060000708808708080F805FF
:102B30000707060000F81020100808F00507070630
:102B4000000010305090F81010050707060000F83C
:102B500080F008088870050707060000708080F084
:102B6000888870050707060000F80810202020203C
:102B700005070706000070888870888870050707B9
:102B800006000070888878080870020505060200B3
:102B9000C0C000C0C00206060602FFC0C000C040A0
:102BA0008004070706000010204080402010050325
:102BB00003060002F800F804070706010080402021
:102BC00010204080050707060000708808102000CC
:102BD0002005070706000070880868A8A870050788
:102BE00007060000708888F88888880507070600AF
:102BF00000F08888F08888F00507070600007088D4
:102C00008080808870050707060000F08888888823
:102C100088F0050707060000F88080F08080F8053E
:102C20000707060000F88080F0808080050707060F
:102C30000000708880B88888700507070600008843
:102C40008888F888888801070706020080808080CD
:102C50008080800507070600003810101010906073
:102C60000507070600008890A0C0A0908805070708
:102C7000060000808080808080F80507070600003D
:102C800088D8A8888888880507070600008888C82B
:102C9000A8988888050707060000708888888888B3
:102CA00070050707060000F08888F080808005071F
:102CB0000706000070888888A89068050707060046
:102CC00000F08888F0A0908805070706000078804B
:102CD00080700808F0050707060000F82020202073
:102CE00020200507070600008888888888887005E6
:102CF000070706000088888888885020050707068F
:102D000000008888888888A8500507070600008882
:102D1000885020508888050707060000888888505A
:102D2000202020050707060000F80810204080F842
:102D3000030707060100E08080808080E00505052C
:102D40000600018040201008030707060100E0206C
:102D500020202020E0050303060004205088050100
:102D600001060000F8020202060205804005050582
:102D70000600007008788878050707060000808044
:102D8000B0C88888F005050506000070808088704E
:102D90000507070600000808689888887805050573
:102DA0000600007088F880700507070600003048AC
:102DB000E0404040400506060600FF70888878081D
:102DC000700507070600008080B0C8888888010762
:102DD00007060200800080808080800308080601CA
:102DE000FF200020202020A04004070706000080CC
:102DF0008090A0C0A090030707060100C04040409B
:102E00004040E0050505060000D0A8A8A8A80505D3
:102E100005060000B0C88888880505050600007012
:102E2000888888700506060600FFF08888F0808094
:102E30000506060600FF7888887808080505050657
:102E40000000B0C880808005050506000070807015
:102E500008F00407070600004040E040404030050D
:102E600005050600008888889868050505060000A5
:102E700088888850200505050600008888A8A85085
:102E80000505050600008850205088050606060046
:102E9000FF888888780870050505060000F810206E
:102EA00040F8030707060100204040804040200111
:102EB0000707060200808080808080800307070665
:102EC0000100804040204040800502020600026868
:102ED0009000000006000001050800FF0601210225
:102EE0003520FFFF07FF06FF09005022165680809D
:102EF00080800080153353A0A0A00257575050F88F
:102F000050F850500257572070A070287020133589
:102F10005580A040A02002475740A0A040A0A0504C
:102F20002513538080801226564080808080401276
:102F300026568040404040800245559060F06090A9
:102F40000255552020F82020113353604080044161
:102F500051F011335340E04002465610102040809B
:102F60008012365640A0A0A0A04012365640C04065
:102F70004040E00246566090106080F0024656F0F5
:102F800020601090600246562060A0F0202002468B
:102F900056F080E01090600246566080E0909060AD
:102FA000024656F010202040400246566090609045
:102FB0009060024656609090701060122555C0C017
:102FC00000C0C01136566060006040801236562046
:102FD0004080804020034353F000F012365680407A
:102FE0002020408012365640A02040004001585812
:102FF000304898A8A8904030024656609090F090D3
:1030000090024656E090E09090E002465660908034
:10301000809060024656E090909090E0024656F014
:1030200080E08080F0024656F080E080808002469A
:1030300056609080B090600246569090F0909090CC
:10304000123656E040404040E002465670202020B4
:10305000A04002465690A0C0A0A090024656808094
:10306000808080F002465690F0F090909002465694
:1030700090D0F0B0B0900246566090909090600270
:103080004656E09090E08080014757609090D0B025
:103090006010024656E09090E09090024656609094
:1030A00040209060123656E0404040404002465674
:1030B0009090909090600246569090909060600240
:1030C0004656909090F0F090024656909060609036
:1030D00090025656888850202020024656F0102034
:1030E0004080F0123656E080808080E002465680B4
:1030F0008040201010123656E020202020E01632AA
:103100005240A0014151F0162252804002445470B6
:103110009090700246568080E09090E012345460A7
:103120008080600246561010709090700244546087
:10313000B0C060024656205040E040400145556016
:10314000907010600246568080E090909012365643
:103150004000C04040E01137572000202020A04010
:10316000024656808090E09090123656C040404013
:1031700040E0025454D0A8A8A8024454E090909093
:1031800002445460909060014555E090E0808001D9
:1031900045557090701010024454A0D080801234B5
:1031A0005460C020C00246564040E04050200244D7
:1031B0005490909070123454A0A0A04002545488AF
:1031C000A8A85002445490606090014555909070BA
:1031D0009060024454F02040F0024757304020C035
:1031E000204030221656808080808080024757C061
:1031F0002040304020C006425250A0FFFFFFFFFF9A
:10320000FFFFFFFFFFFFFFFFFFFFFFFFFFFFFFFFCE
:10321000FFFFFFFFFFFFFFFFFFFFFFFF090050223F
:1032200016568000808080800146562070A0A070D5
:10323000200246562050E04050A00255558870505C
:1032400070880256568850F820F820221757808040
:1032500080008080800247577080E0907010E017F7
:103260003151A002565670A8C8C8A87014355560D0
:10327000A06000E003435350A050123353E02020DD
:10328000143151E002565670E8D8E8D87017315121
:10329000E015335340A04012355540E04000E014A3
:1032A000355540A02040E0143555C020C020C01640
:1032B00022524080014555909090E0800256567809
:1032C000E8E86828282411518011225240801435E2
:1032D0005540C04040E014355540A04000E0034355
:1032E00053A050A0024757808080A060F020024782
:1032F000578080A0D010207002475780408060A087
:10330000F02012365640004080A04002475740202F
:103310006090F0909002475720406090F0909002AB
:10332000475760906090F0909002475750A060908F
:10333000F0909002475790006090F09090024757AD
:1033400060906090F0909002465670A0A0F0A0B0FF
:10335000014757609080809060400247574020F0BE
:1033600080E080F00247572040F080E080F0024784
:10337000576090F080E080F00247579000F080E0C6
:1033800080F01237578040E0404040E0123757202D
:1033900040E0404040E012375740A0E0404040E06D
:1033A000123757A000E0404040E00256567048E80F
:1033B00048487002475750A090D0B09090024757AD
:1033C000402060909090600247572040609090901D
:1033D000600247576090609090906002475750A0FD
:1033E00060909090600247579000609090906012BB
:1033F0003353A040A002465670B0B0D0D0E0024790
:1034000057402090909090600247572040909090B5
:10341000906002475760909090909060024757905C
:1034200000909090906002575710208850202020E4
:1034300002465680E09090E0800246566090A0A040
:1034400090A002475740200070909070024757208C
:10345000400070909070024757205000709090701C
:1034600002475750A000709090700246565000706E
:103470009090700247576090607090907002545422
:10348000F068B07811355560808060400247574041
:10349000200060B0C06002475720400060B0C060AC
:1034A00002475760900060B0C0600246565000600E
:1034B000B0C060123757804000C04040E01237571C
:1034C000204000C04040E012375740A000C04040BC
:1034D000E0123656A000C04040E0024757A040A08E
:1034E0001070906002475750A000E0909090024703
:1034F0005740200060909060024757204000609045
:10350000906002475760900060909060024757506B
:10351000A00060909060024656900060909060120B
:1035200035554000E0004002445470B0D0E00247FE
:103530005740200090909070024757204000909094
:10354000907002475760900090909070024656909D
:1035500000909090700148582040009090709060CA
:103560000147578080E090E08080014757900090AD
:103570009070906001050700FE0500FB01F220FF3E
:10358000FE05FE05FE0200400215258080800080B9
:10359000053242A0A002556550F850F85001465639
:1035A0002070C030E0200255659010204048025540
:1035B0006560806890680512228080022535408011
:1035C0008080400225358040404080043343A04045
:1035D000A003334340E0400122324080043141E007
:1035E0000211218002556508102040800245556077
:1035F00090909060022535C040404040024555E023
:10360000106080F0024555E0106010E00245552042
:1036100060A0F020024555F080E010E002455560C2
:1036200080E09060024555F0102040400245556012
:103630009060906002455560907010600313238085
:1036400000800214248000808002354520408040A4
:1036500020033343E000E0023545804020408002F3
:103660004555E0106000400255657088B8A87002AA
:103670004555609090F090024555E090E090E00252
:1036800035456080808060024555E0909090E00272
:103690003545E080E080E0023545E080E080800252
:1036A00045557080B090700245559090F090900212
:1036B0003545E0404040E002455530101090600232
:1036C000455590A0C0A09002354580808080E002E2
:1036D000556588D8A8888802455590D0B09090024A
:1036E00045556090909060024555E09090E08001D3
:1036F0004656609090906010024555E09090E090A2
:1037000002455570806010E0023545E04040404081
:1037100002455590909090600245559090A0A04031
:1037200002556588A8A8A8500245559090609090D1
:103730000245559090701060023545E0204080E0D1
:10374000022535C0808080C0025565804020100869
:10375000022535C0404040C005324240A0024151E0
:10376000F00522328040024454709090700245551A
:1037700080E09090E0023444608080600245551003
:103780007090907002445460B0C060023545204093
:10379000E0404000465670909070106002455580A1
:1037A000E0909090021525800080808000273740AF
:1037B0000040404040800245558090A0E0900215B6
:1037C000258080808080025464F0A8A8A802445418
:1037D000E090909002445460909060004656E090D3
:1037E00090E0808000465670909070101002344433
:1037F000A0C0808002445470C030E002354540E0F3
:10380000404020024454909090700244549090A004
:1038100040025464A8A85050023444A04040A00084
:103820004656909090701060024454F02040F00290
:103830003545604080406002152580808080800290
:103840003545C0402040C005425250A0FFFFFFFF59
:10385000FFFFFFFFFFFFFFFFFFFFFFFFFFFFFFFF78
:10386000FFFFFFFFFFFFFFFFFFFFFFFFFF02004023
:10387000FFFFFFFFFFFFFFFFFFFFFFFFFFFFFFFF58
:10388000FFFFFFFFFFFFFFFFFFFFFFFFFFFFFFFF48
:10389000FFFFFFFFFFFFFFFFFFFFFFFFFFFFFFFF38
:1038A000FFFFFFFFFFFFFFFFFFFFFFFFFFFFFFFF28
:1038B000FFFFFFFFFFFFFFFFFFFFFFFFFFFFFFFF18
:1038C000FFFFFFFFFFFFFFFFFFFFFFFFFFFFFF0106
:1038D000060D00FE09016602D620FFFE0BFE0AFE61
:1038E0000D006022196980808080808080008018AF
:1038F0003363A0A0A00357675050F850F85050020F
:1039000059692078A0A0702828F02002596948A899
:103910005010204050A89002586840A0A040A098A5
:103920009068281363808080113B6B20404080802A
:10393000808080404020113B6B8040402020202030
:103940002040408006556520A870A82004556520B9
:1039500020F82020113363604080065161F8113354
:103960006340E04002596908081010204040808000
:103970000259692050888888888850200259692017
:1039800060A02020202020F8025969708888081043
:10399000204080F8025969F80810207008088870E3
:1039A000025969101030505090F81010025969F8FF
:1039B0008080B0C80808887002596970888080F0DB
:1039C00088888870025969F808101020204040400B
:1039D000025969708888887088888870025969706F
:1039E000888888780808887011386840E0400000AE
:1039F00040E04011386840E04000006040800259DB
:103A000069081020408040201008045464F8000029
:103A1000F80259698040201008102040800259693E
:103A200070888808102020002002596970888898C2
:103A3000A8A8B080780259692050888888F88888BA
:103A400088025969F048484870484848F002596966
:103A5000708880808080808870025969F04848486A
:103A600048484848F0025969F8808080F08080809A
:103A7000F8025969F8808080F0808080800259695E
:103A800070888080809888887002596988888888C2
:103A9000F888888888123969E040404040404040BA
:103AA000E002596938101010101010906002596926
:103AB000888890A0C0A09088880259698080808002
:103AC00080808080F80259698888D8A8A88888886A
:103AD0008802596988C8C8A8A8989888880259692E
:103AE000708888888888888870025969F0888888F2
:103AF000F080808080015A6A70888888888888A8C9
:103B00007008025969F0888888F0A0908888025966
:103B100069708880807008088870025969F82020D0
:103B20002020202020200259698888888888888859
:103B3000887002596988888888505050202002591E
:103B40006988888888A8A8A8A850025969888850D8
:103B50005020505088880259698888505020202071
:103B60002020025969F808101020404080F8113BCD
:103B70006BE0808080808080808080E00259698056
:103B80008040402010100808113B6BE020202020CE
:103B90002020202020E0085363205088015161F844
:103BA0002A22628040025666700878889868025916
:103BB00069808080F088888888F0025666708880E6
:103BC000808870025969080808788888888878028F
:103BD00056667088F880887002596930484040F015
:103BE0004040404000586870888888780888700293
:103BF0005969808080B0C8888888881238684000F9
:103C0000C040404040E0004A6A10003010101010E0
:103C100090906002596980808090A0C0A090881226
:103C20003969C040404040404040E0025666D0A85C
:103C3000A8A8A888025666B0C888888888025666F0
:103C4000708888888870005868F0888888F080803C
:103C5000800058687888888878080808025666B016
:103C6000C880808080025666708860108870025814
:103C7000684040F040404048300256668888888856
:103C80009868025666888888505020025666888850
:103C9000A8A8A8500256668850202050880058686E
:103CA0008888889868088870025666F810204080D6
:103CB000F8015B6B1820202020C020202020182233
:103CC0001969808080808080808080015B6BC0204B
:103CD0002020201820202020C008536348A890FFEF
:103CE000FFFFFFFFFFFFFFFFFFFFFFFFFFFFFFFFE4
:103CF000FFFFFFFFFFFFFFFFFFFFFFFFFFFFFFFFD4
:103D00000D0060221969800080808080808080039F
:103D100058682070A8A0A0A87020025969304840B7
:103D200040E0404048B003566688705050708802AA
:103D3000596988885050F820F8202022196980801D
:103D400080800080808080124A6A609080609090BD
:103D5000601090601A3262A0A00359697088A8D8D8
:103D6000C8D8A88870045767700878887800F80366
:103D700056662850A0A05028045363F8080816314E
:103D800061E00359697088E8D8D8E8D888700A518A
:103D900061F8174464609090600357672020F82012
:103DA0002000F807356540A02040E007356540A0B9
:103DB0004020C02A226240800058688888888898FD
:103DC000E8808002596978E8E8E8E8682828282629
:103DD0002161C0202262408007356540C04040E03C
:103DE000045767708888887000F8035666A05028CA
:103DF0002850A0025A6A40C04040E00818283808FD
:103E0000025A6A40C04040E01028081038025A6A3E
:103E100040A04020A04818283808025969200020F6
:103E2000204080888870025A6A402000205088888C
:103E3000F88888025A6A10200020508888F88888FC
:103E4000025A6A30480020508888F88888025A6AE6
:103E500028500020508888F88888025A6A505000FC
:103E600020508888F88888025A6A2050202050887C
:103E700088F8888802596958A0A0A0B0E0A0A0B82E
:103E8000005B6B7088808080808088702040025A40
:103E90006A402000F88080F08080F8025A6A102082
:103EA00000F88080F08080F8025A6A304800F8807C
:103EB00080F08080F8025A6A505000F88080F080CC
:103EC00080F8123A6A804000E04040404040E012F2
:103ED0003A6A204000E04040404040E0124A6A60B8
:103EE0009000E04040404040E0123A6AA0A000E06C
:103EF0004040404040E0025969F0484848E848489E
:103F000048F0025A6A2850008888C8A89888880211
:103F10005A6A40200070888888888870025A6A101F
:103F2000200070888888888870025A6A304800703B
:103F3000888888888870025A6A2850007088888823
:103F4000888870025A6A5050007088888888887003
:103F50000355658850205088015B6B08709898A8BD
:103F6000A8A8C8C87080025A6A402000888888883B
:103F7000888870025A6A102000888888888888702B
:103F8000025A6A30480088888888888870025A6A8D
:103F900050500088888888888870025A6A102000EB
:103FA0008888502020202002596980F0888888F075
:103FB000808080025969609090A0A0908888B002AB
:103FC0005969402000700878889868025969102063
:103FD000007008788898680259693048007008783D
:103FE0008898680259692850007008788898680293
:103FF0005969505000700878889868025A6A3048A9
:104000003000700878889868025666702870A0A8FA
:10401000500058687088808088702040025969403C
:1040200020007088F880887002596910200070881C
:10403000F88088700259693048007088F88088706C
:104040000259695050007088F88088701239698070
:104050004000C040404040E0123969204000C0406C
:10406000404040E0124969609000C040404040E05C
:10407000123969A0A000C040404040E0025A6A5096
:10408000206010708888888870025969285000B0B4
:10409000C888888888025969402000708888888884
:1040A00070025969102000708888888870025969E8
:1040B00030480070888888887002596928500070DC
:1040C000888888887002596950500070888888886C
:1040D00070035767202000F80020200158680870FE
:1040E00098A8A8C8708002596940200088888888EC
:1040F0009868025969102000888888889868025951
:10410000693048008888888898680259695050004A
:10411000888888889868005B6B1020008888889859
:1041200068088870005A6A8080B0C88888C8B080E3
:1041300080005B6B50500088888898680888700001
:10414000000000000000000000000000000000006F
:10415000000000000000000000000000000000005F
:1041600000000C000000000000000C000000000037
:10417000000012000000000000002300000000000A
:10418000000021000000000000004C800000000042
:1041900000005E800000000000009240000000006F
:1041A0000000A140000000000001212000000000EC
:1041B00000027F90000000000002001000000000DC
:1041C0000007FFF8000000000004000800000000E5
:1041D00000080004000000000008000600000000C5
:1041E000001000020000000000301E01000000006E
:1041F00000207F81000000000041FFE080000000FF
:104200000043FCF08000000000873B784000000085
:10421000018EDBFC60000000010FEBCC20000000F1
:10422000021FEDB610000000021FDEB610000000F5
:104230000439CD7F080000000436E0FF08000000CC
:10424000087EC0BB84000000187F005D860000006F
:10425000107FC0ED82000000203CC0730100000010
:10426000203B337F01000000701BE77E03800000CD
:10427000C81DEEDE04C00000880FDEDC0440000133
:10428000240FDF3C092000012607DBF8192000027B
:104290007203E7F0139000025101FFE02290000446
:1042A00089007F802448000904801E004824000BF8
:1042B000FE400000DFF40010004000008002001FFC
:1042C000FFFFFFFFFFFE00000000000000000000F5
:1042D00000000000000000000000000000000010CE
:1042E00022103C3C0E1F001022100422110400106A
:1042F00022100822110400102210083C11040010A2
:104300002210102211040010221020221104001E7D
:104310001C1E3C3C0E0400000000000000000000D9
:10432000000000000000000000000000000000008D
:10433000000000000000000000000000000000007D
:10434000000000000000000000000000000000006D
:10435000000000000000000000000000000000005D
:10436000000000000000000000000000000000004D
:10437000000000000000000000000000003048487D
:104380003020202020001A0025753A253032750093
:10439000253032753A253032750025202000252041
:1043A000000000007E006000600060F87ECC60CC01
:1043B00060CC60F860CC00CC00CC00CC00000000E9
:1043C00000000000000000000000000000000000ED
:1043D00000000000000000FE7FFE7F06600000007D
:1043E0000000000000F00FF81FF81FF81FF00FF09A
:1043F0000FF81FF81FF81FE007C00380010000003E
:10440000000000FE7F0E702664724E7A5E324C828F
:1044100041324C7A5E724E26640E70FE7F000000C0
:10442000000000FE7F0E70C663C24382411A58BA74
:104430005D1A588241C243C6630E70FE7F000000C1
:1044400000000088088808101120222022101188FE
:1044500008880810110000000000000000000000A3
:104460000000002022101188088808101120222046
:104470002210118808000000000000000000000069
:1044800000434F4D4D554E49434154494F4E004412
:10449000525952554E004552524F525300494E46C2
:1044A0004F004543484F00205A0020590058002033
:1044B000204D61783A2000205A00205900580020F1
:1044C000204D696E3A20004F6E20004F6666005303
:1044D0006F667420656E6473746F70733A20004960
:1044E0006E76616C69642065787472756465720AB1
:1044F0000020643A0020693A0020703A0020202011
:1045000020202846312E30203D2066756C6C2063BB
:104510006F7272656374696F6E2C2046302E302086
:104520003D206E6F20636F7272656374696F6E29D0
:104530000A002020466164653A20202020202020A7
:104540002020202020202020202046002020536DE5
:104550006F6F7468696E6720286D6D293A2020207E
:10456000202020205300202044697374616E63650D
:1045700020286D6D293A20202020202020205A005C
:104580004261636B6C61736820636F727265637400
:10459000696F6E206973206163746976653A0A00F9
:1045A0004261636B6C61736820636F7272656374E0
:1045B000696F6E20697320696E6163746976653A0C
:1045C0000A004261636B6C617368206D656173758D
:1045D00072656D656E7420286D6D293A2020004F3C
:1045E000666673657473206170706C6965640045FC
:1045F00072723A20546F6F206661722100546F6F9F
:10460000206661722066726F6D20726566657265E4
:104610006E636520706F696E740A00496E7365720F
:10462000742066696C616D656E7420616E642070C3
:104630007265737320627574746F6E20286F7220B8
:104640004D313038290A00507265737320627574D9
:10465000746F6E20286F72204D3130382920746FAE
:104660002068656174206E6F7A7A6C650A00496E05
:10467000736572742066696C616D656E7420616E1D
:104680006420707265737320627574746F6E202875
:104690006F72204D313038290A0047322F473320BE
:1046A00062616420706172616D65746572730A0085
:1046B000536C6565702E2E2E00205A3A200020592A
:1046C0003A200042656420583A2000436C69636BCD
:1046D00020746F20726573756D652E2E2E004E6FDF
:1046E000206D6F76652E00456E642066696C6520CE
:1046F0006C6973740A00426567696E2066696C654F
:10470000206C6973740A004D31323500286E6F20B9
:1047100066696C6529005344207072696E74696E15
:1047200067206279746520004E6F742053442070B6
:1047300072696E74696E670A0043757272656E7491
:104740002066696C653A20005072696E7420746945
:104750006D653A200050726F746563746564205013
:10476000696E0A00000125311D40FFFFFF2924303A
:104770001CFF45FFFF27232F1B0A07FFFFFF43FFF7
:10478000FF040806FF06222B1AFFFF42043803FF2E
:10479000366F666600A2449D4496448F448144442B
:1047A000454255473A004D3131332053006F6B007D
:1047B0004C756C7A426F742054415A2036205265F1
:1047C00074726F204F66662E00544845524D414C1E
:1047D0005F50524F54454354494F4E004155544F3A
:1047E0005245504F52545F53445F535441545553B4
:1047F00000454D455247454E43595F504152534540
:104800005200434153455F4C494748545F42524927
:104810004748544E45535300544F47474C455F4C0F
:10482000494748545300534F4654574152455F50EF
:104830004F574552004255494C445F5045524345FD
:104840004E54004C4556454C494E475F44415441F7
:10485000005A5F50524F4245004155544F4C455607
:10486000454C005052494E545F4A4F420050524FFF
:104870004752455353004155544F5245504F52549F
:104880005F54454D5000564F4C554D455452494389
:1048900000454550524F4D0053455249414C5F58D9
:1048A0004F4E5F584F4646004649524D574152457C
:1048B0005F4E414D453A4D61726C696E202046490C
:1048C000524D574152455F56455253494F4E3A312A
:1048D0002E312E392E32392E32204558545255441D
:1048E00045525F545950453A48617264656E65643B
:1048F000537465656C506C757320534F5552434526
:104900005F434F44455F55524C3A68747470733A34
:104910002F2F636F64652E616C6570686F626A65C6
:104920006374732E636F6D2F646966667573696F48
:104930006E2F4D41524C494E2050524F544F434FD1
:104940004C5F56455253494F4E3A312E30204D411F
:104950004348494E455F545950453A4C756C7A422C
:104960006F742054415A203620526574726F20456E
:10497000585452554445525F434F554E543A312096
:10498000555549443A38343566303033632D6165C6
:1049900062642D346531642D626133612D61323082
:1049A0003132366437393330660A002F2F20004DFC
:1049B00031343520533C696E6465783E206F7574E0
:1049C000206F662072616E67652028302D31290ABC
:1049D00000205400205200416363656C657261746D
:1049E000696F6E3A20500020466C6F773A20005075
:1049F000726F6265205A204F66667365743A2000B4
:104A000043290A0061626C656420286D696E207418
:104A1000656D702000436F6C6420657874727564F6
:104A2000657320617265200020643A0020693A00B5
:104A300020703A004E6F2063617365206C6967686F
:104A4000740A00426564204C6576656C696E672067
:104A5000004661696C656420746F20656E61626CEC
:104A60006520426564204C6576656C696E670A0056
:104A7000426564204C6576656C20436F7272656395
:104A800074696F6E204D61747269783A00454550C3
:104A9000524F4D204F4B0A003F5A206F7574206FC4
:104AA000662072616E676520282D3220746F203574
:104AB000290A003A200050726F6265205A204F6622
:104AC00066736574003F4B2076616C7565206F7569
:104AD00074206F662072616E67652028302D31303A
:104AE000292E0A00416476616E6365204B3D0061AA
:104AF0007869733A70776D5F7363616C65207C735E
:104B000074617475735F726573706F6E73657C0A20
:104B100000524D532063757272656E740053657454
:104B20002063757272656E7400456E61626C6564B7
:104B300009000900416374697665204578747275CF
:104B40006465723A2000496E76616C69642065780C
:104B50007472756465720A00526573656E643A20FA
:104B6000002042002050006F6B0020746F6F206C9B
:104B70006F6E6720657874727573696F6E207072DE
:104B80006576656E7465640A0020636F6C642065E9
:104B90007874727573696F6E2070726576656E7465
:104BA00065640A00627573793A2070617573656493
:104BB00020666F7220696E7075740A006275737971
:104BC0003A2070617573656420666F722075736535
:104BD000720A00627573793A2070726F636573733D
:104BE000696E670A004B494C4C45442E20004B49E6
:104BF0004C4C20636175736564206279204B494C8D
:104C00004C20627574746F6E2F70696E0A004B4988
:104C10004C4C45442E20004B494C4C20636175732D
:104C2000656420627920746F6F206D7563682069F8
:104C30006E6163746976652074696D65202D2063EB
:104C4000757272656E7420636F6D6D616E643A206B
:104C500000506C6561736520726573657400505215
:104C6000494E5445522048414C54454400507269C5
:104C70006E7465722068616C7465642E206B696C5B
:104C80006C28292063616C6C6564210A0050726F86
:104C900062696E67206661696C6564004D31313709
:104CA00020426564206C6576656C696E672066617C
:104CB000696C65642E0A4730205A31300A4730202B
:104CC00045300A4D3330302050323520533838309B
:104CD0000A4D333030205035302053300A4D3330B8
:104CE000302050323520533838300A4D33303020A0
:104CF0005035302053300A4D33303020503235207B
:104D0000533838300A47342053310050524F42450F
:104D1000204641494C20434C45414E204E4F5A5A63
:104D20004C450A004D3131372050726F6265207357
:104D300075636365737366756C0A004D3130392095
:104D4000523137300A4D31313720526577697069F9
:104D50006E67206E6F7A7A6C650A4730205A313060
:104D60000A4D31303920523137300A4D3131372038
:104D70005265776970696E67206E6F7A7A6C650A22
:104D8000473132205030205331322054300A4D31D7
:104D9000303420533136300A4D3131372050726F64
:104DA00062696E6720626564000000A0C1008096A1
:104DB0004300008743000048420000484200004092
:104DC00040000000005761726E696E673A20486FBC
:104DD0006D696E672042756D702044697669736FE6
:104DE00072203C20310A0002020400000000000092
:104DF0000000000000400000A0430080A04300002D
:104E00008743FF01014D3630303A20546F6F2063E5
:104E10006F6C6400486F74656E6420746F6F2063FC
:104E20006F6C640A002F2F616374696F6E3A706152
:104E30007573650A00496E736572742066696C61EA
:104E40006D656E7420616E6420707265737320628C
:104E50007574746F6E20286F72204D313038290AB6
:104E6000002F2F616374696F6E3A726573756D659B
:104E70000A007C3C3E5E2B3D3F2F5B5D3B2C2A2293
:104E80005C004572726F722077726974696E672078
:104E9000746F20454550524F4D210A0045455052F0
:104EA0004F4D206461746173697A65206572726F19
:104EB000722E0A00290A002062797465733B206310
:104EC0007263200053657474696E67732053746F46
:104ED000726564202800290A002062797465733B9A
:104EE0002063726320002073746F726564207365A1
:104EF0007474696E6773207265747269657665642F
:104F0000202800202863616C63756C6174656429D6
:104F1000210A0020213D2000454550524F4D20439D
:104F20005243206D69736D61746368202D2028736E
:104F3000746F7265642920002053697A653A2000F5
:104F4000496E6465783A2000204D61726C696E3D4F
:104F5000563535290A0028454550524F4D3D0045EC
:104F60004550524F4D2076657273696F6E206D69A2
:104F7000736D61746368200048617264636F646577
:104F8000642044656661756C742053657474696E41
:104F90006773204C6F616465640A00282300002851
:104FA000230000640000001027000000009643006A
:104FB000009643000040400000C8410000C9420084
:104FC00000C9420000C8440000D2433A0A00202829
:104FD0006D6D290020204D3930360020204D3931AB
:104FE000340020204D36303320002055004C004640
:104FF000696C616D656E74206C6F61642F756E6C89
:105000006F6164206C656E677468733A0A002020D3
:105010004D393030204B004C696E6561722041641F
:1050200076616E63653A0A00205900205800536586
:105030006E736F726C65737320686F6D696E672035
:105040007468726573686F6C643A0A00205A0020B5
:10505000590020580053746570706572206472693D
:105060007665722063757272656E743A0A0020204C
:105070004D383531205A005A2D50726F6265204FDD
:1050800066667365740020440020490020204D337B
:10509000303420500020440020490020204D33307F
:1050A000312050005049442073657474696E6773F1
:1050B0003A0A0020460020420020480020204D31BE
:1050C00034352053004D6174657269616C206865E8
:1050D0006174757020706172616D65746572733A88
:1050E0000A0020204D3432302053004175746F2067
:1050F000426564204C6576656C696E673A0A0020EB
:105100005A0020590020204D323036205800486F78
:105110006D65206F66667365743A0A00204500204D
:105120005A0020590020580020540020530020200D
:105130004D32303520420020453C6D61785F655F1F
:105140006A65726B3E0020583C6D61785F785F6ADB
:1051500065726B3E20593C6D61785F795F6A65725C
:105160006B3E205A3C6D61785F7A5F6A65726B3E78
:1051700000416476616E6365643A20423C6D696EFD
:105180005F7365676D656E745F74696D655F757378
:105190003E20533C6D696E5F66656564726174653F
:1051A0003E20543C6D696E5F74726176656C5F661B
:1051B000656564726174653E0020540020520020D1
:1051C000204D323034205000416363656C6572615C
:1051D00074696F6E2028756E6974732F7332293A63
:1051E00020503C7072696E745F616363656C3E2031
:1051F000523C726574726163745F616363656C3E97
:1052000020543C74726176656C5F616363656C3ECB
:105210000A00204500205A0020590020204D32303D
:10522000312058004D6178696D756D20416363656B
:105230006C65726174696F6E2028756E6974732F66
:105240007332293A0A00204500205A0020590020D4
:10525000204D3230332058004D6178696D756D20D6
:105260006665656472617465732028756E69747310
:105270002F73293A0A00204500205A0020590020A7
:10528000204D393220580053746570732070657258
:1052900020756E69743A0A0020204D323030204467
:1052A000300A0020204D3230302044002044697301
:1052B00061626C65640A0046696C616D656E74209C
:1052C00073657474696E67733A0020204D31343908
:1052D0002043203B20556E69747320696E2043651E
:1052E0006C736975730A002020473231202020201A
:1052F0003B007A5F6D61783A20007A5F6D696E3AA3
:105300002000795F6D61783A2000785F6D696E3AB0
:1053100020005265706F7274696E6720656E6473E9
:10532000746F70207374617475730A00000022003A
:10533000250028002B002E0031003400020100005F
:10534000050108010B0100002000230026002900B0
:105350002C002F00320000010000030106010901AA
:10536000022569730025696D202569730025696828
:105370002025696D202569730025696420256968E9
:105380002025696D202569730025697920256964C8
:10539000202569682025696D2025697300656E7177
:1053A00075657565696E6720220053544F505045EE
:1053B000442E20005072696E7465722073746F7091
:1053C0007065642064756520746F206572726F72F9
:1053D000732E2046697820746865206572726F723A
:1053E00020616E6420757365204D39393920746FE2
:1053F00020726573746172742E202854656D706517
:105400007261747572652069732072657365742E9C
:10541000205365742069742061667465722072651A
:105420007374617274696E67290A004E6F20436855
:1054300065636B73756D2077697468206C696E6540
:10544000206E756D6265722C204C617374204C69FE
:105450006E653A20004E6F20436865636B73756D0F
:105460002077697468206C696E65206E756D626561
:10547000722C204C617374204C696E653A20006375
:105480006865636B73756D206D69736D61746368B6
:105490002C204C617374204C696E653A20004C6975
:1054A0006E65204E756D626572206973206E6F7433
:1054B000204C617374204C696E65204E756D626579
:1054C000722B312C204C617374204C696E653A202C
:1054D000004D313130004D3331005344207265614D
:1054E00064206572726F720A00446F6E652070727C
:1054F000696E74696E672066696C650A0020496E82
:1055000076616C69642065787472756465722000D8
:105510000000A0C10000A0C10000000000009643F0
:105520000080964300008743486F6D6520257325F2
:1055300073257320666972737400206669727374D0
:105540000A005A0059005800486F6D652000486FE6
:105550006D696E67206661696C6564000A0A426560
:1055600064204C6576656C20436F72726563746964
:105570006F6E204D61747269783A00202B000A43E7
:105580006F72726563746564204265642048656962
:105590006768742076732E2042656420546F706FA4
:1055A0006C6F67793A0A00202B000A426564204834
:1055B000656967687420546F706F6772617068798D
:1055C0003A0A2020202B2D2D2D204241434B202D07
:1055D0002D2B0A2020207C2020202020202020206D
:1055E00020207C0A204C207C20202020282B2920D1
:1055F0002020207C20520A2045207C2020202020B2
:105600002020202020207C20490A2046207C2028A1
:105610002D29204E20282B29207C20470A20542089
:105620007C20202020202020202020207C20480AB0
:105630002020207C20202020282D29202020207C94
:1056400020540A2020207C202020202020202020E0
:1056500020207C0A2020204F2D2D2046524F4E54D2
:10566000202D2D2B0A2028302C30290A004D656171
:105670006E206F662073616D706C656420706F6959
:105680006E74733A200020643A200020623A2000B1
:1056900045716E20636F656666696369656E7473D4
:1056A0003A20613A20003474682070726F6265207D
:1056B000706F696E742C2064697374616E63652009
:1056C00066726F6D20706C616E653A200020284410
:1056D000525952554E2900473239204175746F2076
:1056E000426564204C6576656C696E67003F2028D2
:1056F0004C2C522C462C4229206F7574206F66204A
:10570000626F756E64732E0A003F50726F6265207F
:10571000706F696E74732028592920697320696D30
:10572000706C61757369626C652028322D32292E88
:105730000A003F50726F626520706F696E7473204B
:1057400028582920697320696D706C6175736962CE
:105750006C652028322D32292E0A003F28562965F3
:1057600072626F7365206C6576656C206973206961
:105770006D706C61757369626C652028302D3429F9
:105780002E0A0044656C6574696F6E206661696CF1
:1057900065642C2046696C653A200046696C65207A
:1057A00064656C657465643A0046696C616D656E2C
:1057B0007420757365643A200053746174733A20E1
:1057C000002C204C6F6E67657374206A6F623A20FC
:1057D00000546F74616C2074696D653A20005374D5
:1057E0006174733A20002C204661696C65643A202C
:1057F000002C2046696E69736865643A2000507217
:10580000696E74733A200053746174733A200020F7
:10581000573A00457874727564657220436F6F6CF7
:10582000696E672E2E2E004578747275646572203D
:1058300048656174696E672E2E2E0020573A00422B
:10584000656420636F6F6C696E672E2E2E00426553
:10585000642068656174696E672E2E2E00205A3AA6
:105860000020593A0020436F756E7420583A00208A
:10587000453A00205A3A0020593A00583A003A0076
:105880004361703A0000A93761F511241FBECFEFC4
:10589000D1E2DEBFCDBF00E00CBF13E0A0E0B2E07C
:1058A000E6E6FAE902E00BBF02C007900D92AE3ABD
:1058B000B107D9F729E1AEEAB3E001C01D92A437E0
:1058C000B207E1F71CE2C4E4DCE200E006C0219785
:1058D0000109802FFE010F94BE40C334D10780E040
:1058E0000807A9F70E9464530D94854C0C9400009E
:1058F0002091390230913A0228173907D9F0909354
:105900003A02809339021092580A1092590A109262
:105910005A0A10925B0A8D59964321F41092570A45
:105920001092560A82E08093380281E08093550AF3
:105930001092540A08950CB405FC0DC01EBC000062
:105940000DB407FEFDCF9EB51EBC00000DB407FED2
:10595000FDCF8EB508951EBC00000DB407FEFDCF2F
:105960008EB51EBC00000DB407FEFDCF9EB5089598
:10597000E82F880FFF0BE551F34FE491E750EC302F
:1059800010F5F0E08827E956F34B8E4F0D94BE409A
:105990008091B100887F84608093B10008958091E8
:1059A0009100887F84608093910008958091A10088
:1059B000887F84608093A100089580912101887F71
:1059C0008460809321010895CF92DF92EF92FF923D
:1059D0000F931F93FC018EEA97E4A1EEBDE3808351
:1059E0009183A283B3831682108617821186128652
:1059F0001386148616861586178A108E118E128EBF
:105A0000138E148E158E168E178E10A211A212A24E
:105A100013A214A215A216A217A210A611A612A6CE
:105A200013A614A615A616A617A610AA11AA12AA9E
:105A300013AA14AA15AA16AA17AA10AE11AE12AE6E
:105A400013AE14AE15AE16AEDF01DF961D921D9299
:105A50001D921C92139714961D921D921D921C92DA
:105A6000139714961D921D921D921C9213971496D3
:105A70001D921D921D921C92139714961D921D92B9
:105A80001D921C92139714961D921D921D921C92AA
:105A9000139714961D921D921D921C9213971496A3
:105AA0001D921D921D921C92139714961D921D9289
:105AB0001D921C92139714961D921D921D921C927A
:105AC0001397149680E8C82E84E0D82E85E0E82E3F
:105AD000F12CCD92DD92ED92FC92139714961D92CB
